{"contracts/Reputation.sol":{"Reputation":{"abi":[{"inputs":[{"internalType":"address","name":"_taskEscrow","type":"address"},{"internalType":"address","name":"_agentRegistry","type":"address"}],"stateMutability":"nonpayable","type":"constructor"},{"inputs":[{"internalType":"address","name":"owner","type":"address"}],"name":"OwnableInvalidOwner","type":"error"},{"inputs":[{"internalType":"address","name":"account","type":"address"}],"name":"OwnableUnauthorizedAccount","type":"error"},{"anonymous":false,"inputs":[{"indexed":true,"internalType":"address","name":"previousOwner","type":"address"},{"indexed":true,"internalType":"address","name":"newOwner","type":"address"}],"name":"OwnershipTransferred","type":"event"},{"anonymous":false,"inputs":[{"indexed":true,"internalType":"uint256","name":"reviewId","type":"uint256"},{"indexed":true,"internalType":"address","name":"reviewer","type":"address"},{"indexed":false,"internalType":"address","name":"reviewee","type":"address"},{"indexed":false,"internalType":"uint256","name":"taskId","type":"uint256"},{"indexed":false,"internalType":"uint8","name":"rating","type":"uint8"}],"name":"ReviewSubmitted","type":"event"},{"inputs":[],"name":"agentRegistry","outputs":[{"internalType":"contract IAgentRegistry","name":"","type":"address"}],"stateMutability":"view","type":"function"},{"inputs":[{"internalType":"address","name":"","type":"address"},{"internalType":"uint256","name":"","type":"uint256"}],"name":"agentReviews","outputs":[{"internalType":"uint256","name":"","type":"uint256"}],"stateMutability":"view","type":"function"},{"inputs":[{"internalType":"address","name":"agent","type":"address"}],"name":"getReputation","outputs":[{"internalType":"uint256","name":"averageRating","type":"uint256"},{"internalType":"uint256","name":"totalReviews","type":"uint256"},{"internalType":"uint256","name":"completedTasks","type":"uint256"},{"internalType":"uint256","name":"disputedTasks","type":"uint256"},{"internalType":"uint256","name":"totalEarnings","type":"uint256"},{"internalType":"uint256","name":"avgResponseTime","type":"uint256"},{"internalType":"uint256","name":"completionRate","type":"uint256"}],"stateMutability":"view","type":"function"},{"inputs":[{"internalType":"address","name":"agent","type":"address"}],"name":"getReviewCount","outputs":[{"internalType":"uint256","name":"","type":"uint256"}],"stateMutability":"view","type":"function"},{"inputs":[{"internalType":"address","name":"agent","type":"address"},{"internalType":"uint256","name":"offset","type":"uint256"},{"internalType":"uint256","name":"limit","type":"uint256"}],"name":"getReviews","outputs":[{"internalType":"uint256[]","name":"reviewIds","type":"uint256[]"},{"internalType":"address[]","name":"reviewers","type":"address[]"},{"internalType":"uint8[]","name":"ratings","type":"uint8[]"},{"internalType":"string[]","name":"comments","type":"string[]"},{"internalType":"uint256[]","name":"taskIds","type":"uint256[]"},{"internalType":"uint256[]","name":"createdAts","type":"uint256[]"}],"stateMutability":"view","type":"function"},{"inputs":[{"internalType":"address","name":"agent","type":"address"}],"name":"getTrustScore","outputs":[{"internalType":"uint256","name":"","type":"uint256"}],"stateMutability":"view","type":"function"},{"inputs":[{"internalType":"uint256","name":"taskId","type":"uint256"},{"internalType":"address","name":"reviewer","type":"address"}],"name":"hasReviewForTask","outputs":[{"internalType":"bool","name":"","type":"bool"}],"stateMutability":"view","type":"function"},{"inputs":[{"internalType":"uint256","name":"","type":"uint256"},{"internalType":"address","name":"","type":"address"}],"name":"hasReviewed","outputs":[{"internalType":"bool","name":"","type":"bool"}],"stateMutability":"view","type":"function"},{"inputs":[],"name":"nextReviewId","outputs":[{"internalType":"uint256","name":"","type":"uint256"}],"stateMutability":"view","type":"function"},{"inputs":[],"name":"owner","outputs":[{"internalType":"address","name":"","type":"address"}],"stateMutability":"view","type":"function"},{"inputs":[],"name":"renounceOwnership","outputs":[],"stateMutability":"nonpayable","type":"function"},{"inputs":[{"internalType":"address","name":"","type":"address"}],"name":"reputation","outputs":[{"internalType":"uint256","name":"averageRating","type":"uint256"},{"internalType":"uint256","name":"totalReviews","type":"uint256"},{"internalType":"uint256","name":"completedTasks","type":"uint256"},{"internalType":"uint256","name":"disputedTasks","type":"uint256"},{"internalType":"uint256","name":"totalEarnings","type":"uint256"},{"internalType":"uint256","name":"avgResponseTime","type":"uint256"},{"internalType":"uint256","name":"completionRate","type":"uint256"}],"stateMutability":"view","type":"function"},{"inputs":[{"internalType":"uint256","name":"","type":"uint256"}],"name":"reviews","outputs":[{"internalType":"uint256","name":"id","type":"uint256"},{"internalType":"address","name":"reviewer","type":"address"},{"internalType":"address","name":"reviewee","type":"address"},{"internalType":"uint256","name":"taskId","type":"uint256"},{"internalType":"uint8","name":"rating","type":"uint8"},{"internalType":"string","name":"comment","type":"string"},{"internalType":"uint256","name":"createdAt","type":"uint256"}],"stateMutability":"view","type":"function"},{"inputs":[{"internalType":"address","name":"_agentRegistry","type":"address"}],"name":"setAgentRegistry","outputs":[],"stateMutability":"nonpayable","type":"function"},{"inputs":[{"internalType":"address","name":"_taskEscrow","type":"address"}],"name":"setTaskEscrow","outputs":[],"stateMutability":"nonpayable","type":"function"},{"inputs":[{"internalType":"uint256","name":"taskId","type":"uint256"},{"internalType":"uint8","name":"rating","type":"uint8"},{"internalType":"string","name":"comment","type":"string"}],"name":"submitReview","outputs":[],"stateMutability":"nonpayable","type":"function"},{"inputs":[],"name":"taskEscrow","outputs":[{"internalType":"address","name":"","type":"address"}],"stateMutability":"view","type":"function"},{"inputs":[{"internalType":"address","name":"newOwner","type":"address"}],"name":"transferOwnership","outputs":[],"stateMutability":"nonpayable","type":"function"},{"inputs":[{"internalType":"address","name":"agent","type":"address"},{"internalType":"uint256","name":"completedTasks","type":"uint256"},{"internalType":"uint256","name":"disputedTasks","type":"uint256"},{"internalType":"uint256","name":"totalEarnings","type":"uint256"},{"internalType":"uint256","name":"avgResponseTime","type":"uint256"},{"internalType":"uint256","name":"completionRate","type":"uint256"}],"name":"updateStats","outputs":[],"stateMutability":"nonpayable","type":"function"}],"evm":{"bytecode":{"linkReferences":{},"object":"6080604052600160035534801562000015575f80fd5b50604051620017bd380380620017bd833981016040819052620000389162000107565b33806200005e57604051631e4fbdf760e01b81525f600482015260240160405180910390fd5b62000069816200009c565b50600180546001600160a01b039384166001600160a01b031991821617909155600280549290931691161790556200013d565b5f80546001600160a01b038381166001600160a01b0319831681178455604051919092169283917f8be0079c531659141344cd1fd0a4f28419497f9722a3daafe3b4186f6b6457e09190a35050565b80516001600160a01b038116811462000102575f80fd5b919050565b5f806040838503121562000119575f80fd5b6200012483620000eb565b91506200013460208401620000eb565b90509250929050565b611672806200014b5f395ff3fe608060405234801561000f575f80fd5b506004361061011c575f3560e01c8063715018a6116100a95780639c89a0e21161006e5780639c89a0e214610290578063b9f7945114610318578063da87501314610362578063e83ddcea14610375578063f2fde38b1461039b575f80fd5b8063715018a61461022557806374a5b6931461022d5780637c7198cc146102405780638203bc881461026d5780638da5cb5b14610280575f80fd5b8063315e32a8116100ef578063315e32a81461018b578063396e77e7146101ae578063509209ba146101c55780635e09eea1146101ea5780636ec78fc6146101fd575f80fd5b80630d1cfcae1461012057806318040e781461015057806327c4ffe11461016557806328342ecf14610178575b5f80fd5b600254610133906001600160a01b031681565b6040516001600160a01b0390911681526020015b60405180910390f35b61016361015e366004610f17565b6103ae565b005b600154610133906001600160a01b031681565b610163610186366004610f5f565b6103ee565b61019e610199366004610f81565b610418565b6040519015158152602001610147565b6101b760035481565b604051908152602001610147565b6101d86101d3366004610faf565b610444565b604051610147969594939291906110f2565b6101b76101f8366004610f5f565b610812565b6101b761020b366004610f5f565b6001600160a01b03165f9081526006602052604090205490565b6101636108cf565b61016361023b36600461121c565b6108e2565b61019e61024e366004610f81565b600460209081525f928352604080842090915290825290205460ff1681565b6101b761027b3660046112b1565b610cb9565b5f546001600160a01b0316610133565b6102e361029e366004610f5f565b6001600160a01b03165f908152600760205260409020805460018201546002830154600384015460048501546005860154600690960154949693959294919390929190565b604080519788526020880196909652948601939093526060850191909152608084015260a083015260c082015260e001610147565b6102e3610326366004610f5f565b60076020525f90815260409020805460018201546002830154600384015460048501546005860154600690960154949593949293919290919087565b610163610370366004610f5f565b610ce4565b6103886103833660046112db565b610d0e565b60405161014797969594939291906112f2565b6101636103a9366004610f5f565b610de3565b6103b6610e20565b6001600160a01b039095165f908152600760205260409020600281019490945560038401929092556004830155600582015560060155565b6103f6610e20565b600280546001600160a01b0319166001600160a01b0392909216919091179055565b5f8281526004602090815260408083206001600160a01b038516845290915290205460ff165b92915050565b6001600160a01b0383165f9081526006602052604081206060918291829182918291829190610473898b61135b565b8254909150811115610483575080545b5f61048e8b8361136e565b90508067ffffffffffffffff8111156104a9576104a96111b0565b6040519080825280602002602001820160405280156104d2578160200160208202803683370190505b5098508067ffffffffffffffff8111156104ee576104ee6111b0565b604051908082528060200260200182016040528015610517578160200160208202803683370190505b5097508067ffffffffffffffff811115610533576105336111b0565b60405190808252806020026020018201604052801561055c578160200160208202803683370190505b5096508067ffffffffffffffff811115610578576105786111b0565b6040519080825280602002602001820160405280156105ab57816020015b60608152602001906001900390816105965790505b5095508067ffffffffffffffff8111156105c7576105c76111b0565b6040519080825280602002602001820160405280156105f0578160200160208202803683370190505b5094508067ffffffffffffffff81111561060c5761060c6111b0565b604051908082528060200260200182016040528015610635578160200160208202803683370190505b5093505f5b81811015610802575f8461064e838f61135b565b8154811061065e5761065e611381565b905f5260205f20015490505f60055f8381526020019081526020015f209050818c848151811061069057610690611381565b602090810291909101015260018101548b516001600160a01b03909116908c90859081106106c0576106c0611381565b6001600160a01b039092166020928302919091019091015260048101548a5160ff909116908b90859081106106f7576106f7611381565b602002602001019060ff16908160ff168152505080600501805461071a90611395565b80601f016020809104026020016040519081016040528092919081815260200182805461074690611395565b80156107915780601f1061076857610100808354040283529160200191610791565b820191905f5260205f20905b81548152906001019060200180831161077457829003601f168201915b50505050508984815181106107a8576107a8611381565b602002602001018190525080600301548884815181106107ca576107ca611381565b60200260200101818152505080600601548784815181106107ed576107ed611381565b6020908102919091010152505060010161063a565b5050505093975093979195509350565b6001600160a01b0381165f9081526007602052604081206001810154820361083c57505f92915050565b80545f906101f49061084f90603c6113cd565b61085991906113e4565b90505f6127108360060154601e61087091906113cd565b61087a91906113e4565b90505f60648460020154116108ab5760648460020154600a61089c91906113cd565b6108a691906113e4565b6108ae565b600a5b9050806108bb838561135b565b6108c5919061135b565b9695505050505050565b6108d7610e20565b6108e05f610e4c565b565b60018260ff16101580156108fa575060058260ff1611155b6109405760405162461bcd60e51b8152602060048201526012602482015271526174696e67206d75737420626520312d3560701b60448201526064015b60405180910390fd5b5f83815260046020908152604080832033845290915290205460ff161561099c5760405162461bcd60e51b815260206004820152601060248201526f105b1c9958591e481c995d9a595dd95960821b6044820152606401610937565b600154604051630eb2f3bf60e11b8152600481018590525f91829182916001600160a01b031690631d65e77e906024015f60405180830381865afa1580156109e6573d5f803e3d5ffd5b505050506040513d5f823e601f3d908101601f19168201604052610a0d919081019061145d565b5050505094505050925092508060ff16600514610a5c5760405162461bcd60e51b815260206004820152600d60248201526c15185cdac81b9bdd081c185a59609a1b6044820152606401610937565b336001600160a01b0384161480610a7b5750336001600160a01b038316145b610ab65760405162461bcd60e51b815260206004820152600c60248201526b139bdd081a5b9d9bdb1d995960a21b6044820152606401610937565b5f336001600160a01b03851614610acd5783610acf565b825b90506001600160a01b0381163303610b1e5760405162461bcd60e51b815260206004820152601260248201527143616e6e6f742073656c662d72657669657760701b6044820152606401610937565b5f8781526004602090815260408083203384529091528120805460ff19166001179055600380549082610b5083611518565b909155505f818152600560208190526040909120828155600181018054336001600160a01b0319918216179091556002820180549091166001600160a01b038716179055600381018b905560048101805460ff191660ff8c161790559192508101610bbb888261157c565b50426006808301919091556001600160a01b0384165f908152602091825260408120805460018101825590825291902001829055610bfc8360ff8a16610e9b565b600254604051634e63f9b160e01b81526001600160a01b03858116600483015260ff8b16602483015290911690634e63f9b1906044015f604051808303815f87803b158015610c49575f80fd5b505af1158015610c5b573d5f803e3d5ffd5b5050604080516001600160a01b0387168152602081018d905260ff8c168183015290513393508592507f53ebdee98743cc6259192725dfd8a86bb1cb758884089994611341c6fd2795749181900360600190a3505050505050505050565b6006602052815f5260405f208181548110610cd2575f80fd5b905f5260205f20015f91509150505481565b610cec610e20565b600180546001600160a01b0319166001600160a01b0392909216919091179055565b600560208190525f918252604090912080546001820154600283015460038401546004850154958501805494966001600160a01b03948516969390941694919360ff169291610d5c90611395565b80601f0160208091040260200160405190810160405280929190818152602001828054610d8890611395565b8015610dd35780601f10610daa57610100808354040283529160200191610dd3565b820191905f5260205f20905b815481529060010190602001808311610db657829003601f168201915b5050505050908060060154905087565b610deb610e20565b6001600160a01b038116610e1457604051631e4fbdf760e01b81525f6004820152602401610937565b610e1d81610e4c565b50565b5f546001600160a01b031633146108e05760405163118cdaa760e01b8152336004820152602401610937565b5f80546001600160a01b038381166001600160a01b0319831681178455604051919092169283917f8be0079c531659141344cd1fd0a4f28419497f9722a3daafe3b4186f6b6457e09190a35050565b6001600160a01b0382165f908152600760205260408120600181015481549192918491610ec7916113cd565b610ed1919061135b565b90506001826001015f828254610ee7919061135b565b90915550506001820154610efb90826113e4565b909155505050565b6001600160a01b0381168114610e1d575f80fd5b5f805f805f8060c08789031215610f2c575f80fd5b8635610f3781610f03565b9860208801359850604088013597606081013597506080810135965060a00135945092505050565b5f60208284031215610f6f575f80fd5b8135610f7a81610f03565b9392505050565b5f8060408385031215610f92575f80fd5b823591506020830135610fa481610f03565b809150509250929050565b5f805f60608486031215610fc1575f80fd5b8335610fcc81610f03565b95602085013595506040909401359392505050565b5f815180845260208085019450602084015f5b8381101561101057815187529582019590820190600101610ff4565b509495945050505050565b5f815180845260208085019450602084015f5b8381101561101057815160ff168752958201959082019060010161102e565b5f5b8381101561106757818101518382015260200161104f565b50505f910152565b5f815180845261108681602086016020860161104d565b601f01601f19169290920160200192915050565b5f8282518085526020808601955060208260051b840101602086015f5b848110156110e557601f198684030189526110d383835161106f565b988401989250908301906001016110b7565b5090979650505050505050565b60c081525f61110460c0830189610fe1565b8281036020848101919091528851808352898201928201905f5b818110156111435784516001600160a01b03168352938301939183019160010161111e565b50508481036040860152611157818a61101b565b92505050828103606084015261116d818761109a565b905082810360808401526111818186610fe1565b905082810360a08401526111958185610fe1565b9998505050505050505050565b60ff81168114610e1d575f80fd5b634e487b7160e01b5f52604160045260245ffd5b604051601f8201601f1916810167ffffffffffffffff811182821017156111ed576111ed6111b0565b604052919050565b5f67ffffffffffffffff82111561120e5761120e6111b0565b50601f01601f191660200190565b5f805f6060848603121561122e575f80fd5b833592506020840135611240816111a2565b9150604084013567ffffffffffffffff81111561125b575f80fd5b8401601f8101861361126b575f80fd5b803561127e611279826111f5565b6111c4565b818152876020838501011115611292575f80fd5b816020840160208301375f602083830101528093505050509250925092565b5f80604083850312156112c2575f80fd5b82356112cd81610f03565b946020939093013593505050565b5f602082840312156112eb575f80fd5b5035919050565b8781526001600160a01b038781166020830152861660408201526060810185905260ff8416608082015260e060a082018190525f906113339083018561106f565b90508260c083015298975050505050505050565b634e487b7160e01b5f52601160045260245ffd5b8082018082111561043e5761043e611347565b8181038181111561043e5761043e611347565b634e487b7160e01b5f52603260045260245ffd5b600181811c908216806113a957607f821691505b6020821081036113c757634e487b7160e01b5f52602260045260245ffd5b50919050565b808202811582820484141761043e5761043e611347565b5f826113fe57634e487b7160e01b5f52601260045260245ffd5b500490565b5f82601f830112611412575f80fd5b8151611420611279826111f5565b818152846020838601011115611434575f80fd5b61144582602083016020870161104d565b949350505050565b8051611458816111a2565b919050565b5f805f805f805f805f6101208a8c031215611476575f80fd5b895161148181610f03565b60208b015190995061149281610f03565b60408b015160608c0151919950975067ffffffffffffffff808211156114b6575f80fd5b6114c28d838e01611403565b97506114d060808d0161144d565b965060a08c0151955060c08c0151945060e08c015193506101008c01519150808211156114fb575f80fd5b506115088c828d01611403565b9150509295985092959850929598565b5f6001820161152957611529611347565b5060010190565b601f82111561157757805f5260205f20601f840160051c810160208510156115555750805b601f840160051c820191505b81811015611574575f8155600101611561565b50505b505050565b815167ffffffffffffffff811115611596576115966111b0565b6115aa816115a48454611395565b84611530565b602080601f8311600181146115dd575f84156115c65750858301515b5f19600386901b1c1916600185901b178555611634565b5f85815260208120601f198616915b8281101561160b578886015182559484019460019091019084016115ec565b508582101561162857878501515f19600388901b60f8161c191681555b505060018460011b0185555b50505050505056fea26469706673582212209c1251af8698a35a64f0475fda381895d80d8362c076cc9322a06c48166f5c8564736f6c63430008180033","opcodes":"PUSH1 0x80 PUSH1 0x40 MSTORE PUSH1 0x1 PUSH1 0x3 SSTORE CALLVALUE DUP1 ISZERO PUSH3 0x15 JUMPI PUSH0 DUP1 REVERT JUMPDEST POP PUSH1 0x40 MLOAD PUSH3 0x17BD CODESIZE SUB DUP1 PUSH3 0x17BD DUP4 CODECOPY DUP2 ADD PUSH1 0x40 DUP2 SWAP1 MSTORE PUSH3 0x38 SWAP2 PUSH3 0x107 JUMP JUMPDEST CALLER DUP1 PUSH3 0x5E JUMPI PUSH1 0x40 MLOAD PUSH4 0x1E4FBDF7 PUSH1 0xE0 SHL DUP2 MSTORE PUSH0 PUSH1 0x4 DUP3 ADD MSTORE PUSH1 0x24 ADD PUSH1 0x40 MLOAD DUP1 SWAP2 SUB SWAP1 REVERT JUMPDEST PUSH3 0x69 DUP2 PUSH3 0x9C JUMP JUMPDEST POP PUSH1 0x1 DUP1 SLOAD PUSH1 0x1 PUSH1 0x1 PUSH1 0xA0 SHL SUB SWAP4 DUP5 AND PUSH1 0x1 PUSH1 0x1 PUSH1 0xA0 SHL SUB NOT SWAP2 DUP3 AND OR SWAP1 SWAP2 SSTORE PUSH1 0x2 DUP1 SLOAD SWAP3 SWAP1 SWAP4 AND SWAP2 AND OR SWAP1 SSTORE PUSH3 0x13D JUMP JUMPDEST PUSH0 DUP1 SLOAD PUSH1 0x1 PUSH1 0x1 PUSH1 0xA0 SHL SUB DUP4 DUP2 AND PUSH1 0x1 PUSH1 0x1 PUSH1 0xA0 SHL SUB NOT DUP4 AND DUP2 OR DUP5 SSTORE PUSH1 0x40 MLOAD SWAP2 SWAP1 SWAP3 AND SWAP3 DUP4 SWAP2 PUSH32 0x8BE0079C531659141344CD1FD0A4F28419497F9722A3DAAFE3B4186F6B6457E0 SWAP2 SWAP1 LOG3 POP POP JUMP JUMPDEST DUP1 MLOAD PUSH1 0x1 PUSH1 0x1 PUSH1 0xA0 SHL SUB DUP2 AND DUP2 EQ PUSH3 0x102 JUMPI PUSH0 DUP1 REVERT JUMPDEST SWAP2 SWAP1 POP JUMP JUMPDEST PUSH0 DUP1 PUSH1 0x40 DUP4 DUP6 SUB SLT ISZERO PUSH3 0x119 JUMPI PUSH0 DUP1 REVERT JUMPDEST PUSH3 0x124 DUP4 PUSH3 0xEB JUMP JUMPDEST SWAP2 POP PUSH3 0x134 PUSH1 0x20 DUP5 ADD PUSH3 0xEB JUMP JUMPDEST SWAP1 POP SWAP3 POP SWAP3 SWAP1 POP JUMP JUMPDEST PUSH2 0x1672 DUP1 PUSH3 0x14B PUSH0 CODECOPY PUSH0 RETURN INVALID PUSH1 0x80 PUSH1 0x40 MSTORE CALLVALUE DUP1 ISZERO PUSH2 0xF JUMPI PUSH0 DUP1 REVERT JUMPDEST POP PUSH1 0x4 CALLDATASIZE LT PUSH2 0x11C JUMPI PUSH0 CALLDATALOAD PUSH1 0xE0 SHR DUP1 PUSH4 0x715018A6 GT PUSH2 0xA9 JUMPI DUP1 PUSH4 0x9C89A0E2 GT PUSH2 0x6E JUMPI DUP1 PUSH4 0x9C89A0E2 EQ PUSH2 0x290 JUMPI DUP1 PUSH4 0xB9F79451 EQ PUSH2 0x318 JUMPI DUP1 PUSH4 0xDA875013 EQ PUSH2 0x362 JUMPI DUP1 PUSH4 0xE83DDCEA EQ PUSH2 0x375 JUMPI DUP1 PUSH4 0xF2FDE38B EQ PUSH2 0x39B JUMPI PUSH0 DUP1 REVERT JUMPDEST DUP1 PUSH4 0x715018A6 EQ PUSH2 0x225 JUMPI DUP1 PUSH4 0x74A5B693 EQ PUSH2 0x22D JUMPI DUP1 PUSH4 0x7C7198CC EQ PUSH2 0x240 JUMPI DUP1 PUSH4 0x8203BC88 EQ PUSH2 0x26D JUMPI DUP1 PUSH4 0x8DA5CB5B EQ PUSH2 0x280 JUMPI PUSH0 DUP1 REVERT JUMPDEST DUP1 PUSH4 0x315E32A8 GT PUSH2 0xEF JUMPI DUP1 PUSH4 0x315E32A8 EQ PUSH2 0x18B JUMPI DUP1 PUSH4 0x396E77E7 EQ PUSH2 0x1AE JUMPI DUP1 PUSH4 0x509209BA EQ PUSH2 0x1C5 JUMPI DUP1 PUSH4 0x5E09EEA1 EQ PUSH2 0x1EA JUMPI DUP1 PUSH4 0x6EC78FC6 EQ PUSH2 0x1FD JUMPI PUSH0 DUP1 REVERT JUMPDEST DUP1 PUSH4 0xD1CFCAE EQ PUSH2 0x120 JUMPI DUP1 PUSH4 0x18040E78 EQ PUSH2 0x150 JUMPI DUP1 PUSH4 0x27C4FFE1 EQ PUSH2 0x165 JUMPI DUP1 PUSH4 0x28342ECF EQ PUSH2 0x178 JUMPI JUMPDEST PUSH0 DUP1 REVERT JUMPDEST PUSH1 0x2 SLOAD PUSH2 0x133 SWAP1 PUSH1 0x1 PUSH1 0x1 PUSH1 0xA0 SHL SUB AND DUP2 JUMP JUMPDEST PUSH1 0x40 MLOAD PUSH1 0x1 PUSH1 0x1 PUSH1 0xA0 SHL SUB SWAP1 SWAP2 AND DUP2 MSTORE PUSH1 0x20 ADD JUMPDEST PUSH1 0x40 MLOAD DUP1 SWAP2 SUB SWAP1 RETURN JUMPDEST PUSH2 0x163 PUSH2 0x15E CALLDATASIZE PUSH1 0x4 PUSH2 0xF17 JUMP JUMPDEST PUSH2 0x3AE JUMP JUMPDEST STOP JUMPDEST PUSH1 0x1 SLOAD PUSH2 0x133 SWAP1 PUSH1 0x1 PUSH1 0x1 PUSH1 0xA0 SHL SUB AND DUP2 JUMP JUMPDEST PUSH2 0x163 PUSH2 0x186 CALLDATASIZE PUSH1 0x4 PUSH2 0xF5F JUMP JUMPDEST PUSH2 0x3EE JUMP JUMPDEST PUSH2 0x19E PUSH2 0x199 CALLDATASIZE PUSH1 0x4 PUSH2 0xF81 JUMP JUMPDEST PUSH2 0x418 JUMP JUMPDEST PUSH1 0x40 MLOAD SWAP1 ISZERO ISZERO DUP2 MSTORE PUSH1 0x20 ADD PUSH2 0x147 JUMP JUMPDEST PUSH2 0x1B7 PUSH1 0x3 SLOAD DUP2 JUMP JUMPDEST PUSH1 0x40 MLOAD SWAP1 DUP2 MSTORE PUSH1 0x20 ADD PUSH2 0x147 JUMP JUMPDEST PUSH2 0x1D8 PUSH2 0x1D3 CALLDATASIZE PUSH1 0x4 PUSH2 0xFAF JUMP JUMPDEST PUSH2 0x444 JUMP JUMPDEST PUSH1 0x40 MLOAD PUSH2 0x147 SWAP7 SWAP6 SWAP5 SWAP4 SWAP3 SWAP2 SWAP1 PUSH2 0x10F2 JUMP JUMPDEST PUSH2 0x1B7 PUSH2 0x1F8 CALLDATASIZE PUSH1 0x4 PUSH2 0xF5F JUMP JUMPDEST PUSH2 0x812 JUMP JUMPDEST PUSH2 0x1B7 PUSH2 0x20B CALLDATASIZE PUSH1 0x4 PUSH2 0xF5F JUMP JUMPDEST PUSH1 0x1 PUSH1 0x1 PUSH1 0xA0 SHL SUB AND PUSH0 SWAP1 DUP2 MSTORE PUSH1 0x6 PUSH1 0x20 MSTORE PUSH1 0x40 SWAP1 KECCAK256 SLOAD SWAP1 JUMP JUMPDEST PUSH2 0x163 PUSH2 0x8CF JUMP JUMPDEST PUSH2 0x163 PUSH2 0x23B CALLDATASIZE PUSH1 0x4 PUSH2 0x121C JUMP JUMPDEST PUSH2 0x8E2 JUMP JUMPDEST PUSH2 0x19E PUSH2 0x24E CALLDATASIZE PUSH1 0x4 PUSH2 0xF81 JUMP JUMPDEST PUSH1 0x4 PUSH1 0x20 SWAP1 DUP2 MSTORE PUSH0 SWAP3 DUP4 MSTORE PUSH1 0x40 DUP1 DUP5 KECCAK256 SWAP1 SWAP2 MSTORE SWAP1 DUP3 MSTORE SWAP1 KECCAK256 SLOAD PUSH1 0xFF AND DUP2 JUMP JUMPDEST PUSH2 0x1B7 PUSH2 0x27B CALLDATASIZE PUSH1 0x4 PUSH2 0x12B1 JUMP JUMPDEST PUSH2 0xCB9 JUMP JUMPDEST PUSH0 SLOAD PUSH1 0x1 PUSH1 0x1 PUSH1 0xA0 SHL SUB AND PUSH2 0x133 JUMP JUMPDEST PUSH2 0x2E3 PUSH2 0x29E CALLDATASIZE PUSH1 0x4 PUSH2 0xF5F JUMP JUMPDEST PUSH1 0x1 PUSH1 0x1 PUSH1 0xA0 SHL SUB AND PUSH0 SWAP1 DUP2 MSTORE PUSH1 0x7 PUSH1 0x20 MSTORE PUSH1 0x40 SWAP1 KECCAK256 DUP1 SLOAD PUSH1 0x1 DUP3 ADD SLOAD PUSH1 0x2 DUP4 ADD SLOAD PUSH1 0x3 DUP5 ADD SLOAD PUSH1 0x4 DUP6 ADD SLOAD PUSH1 0x5 DUP7 ADD SLOAD PUSH1 0x6 SWAP1 SWAP7 ADD SLOAD SWAP5 SWAP7 SWAP4 SWAP6 SWAP3 SWAP5 SWAP2 SWAP4 SWAP1 SWAP3 SWAP2 SWAP1 JUMP JUMPDEST PUSH1 0x40 DUP1 MLOAD SWAP8 DUP9 MSTORE PUSH1 0x20 DUP9 ADD SWAP7 SWAP1 SWAP7 MSTORE SWAP5 DUP7 ADD SWAP4 SWAP1 SWAP4 MSTORE PUSH1 0x60 DUP6 ADD SWAP2 SWAP1 SWAP2 MSTORE PUSH1 0x80 DUP5 ADD MSTORE PUSH1 0xA0 DUP4 ADD MSTORE PUSH1 0xC0 DUP3 ADD MSTORE PUSH1 0xE0 ADD PUSH2 0x147 JUMP JUMPDEST PUSH2 0x2E3 PUSH2 0x326 CALLDATASIZE PUSH1 0x4 PUSH2 0xF5F JUMP JUMPDEST PUSH1 0x7 PUSH1 0x20 MSTORE PUSH0 SWAP1 DUP2 MSTORE PUSH1 0x40 SWAP1 KECCAK256 DUP1 SLOAD PUSH1 0x1 DUP3 ADD SLOAD PUSH1 0x2 DUP4 ADD SLOAD PUSH1 0x3 DUP5 ADD SLOAD PUSH1 0x4 DUP6 ADD SLOAD PUSH1 0x5 DUP7 ADD SLOAD PUSH1 0x6 SWAP1 SWAP7 ADD SLOAD SWAP5 SWAP6 SWAP4 SWAP5 SWAP3 SWAP4 SWAP2 SWAP3 SWAP1 SWAP2 SWAP1 DUP8 JUMP JUMPDEST PUSH2 0x163 PUSH2 0x370 CALLDATASIZE PUSH1 0x4 PUSH2 0xF5F JUMP JUMPDEST PUSH2 0xCE4 JUMP JUMPDEST PUSH2 0x388 PUSH2 0x383 CALLDATASIZE PUSH1 0x4 PUSH2 0x12DB JUMP JUMPDEST PUSH2 0xD0E JUMP JUMPDEST PUSH1 0x40 MLOAD PUSH2 0x147 SWAP8 SWAP7 SWAP6 SWAP5 SWAP4 SWAP3 SWAP2 SWAP1 PUSH2 0x12F2 JUMP JUMPDEST PUSH2 0x163 PUSH2 0x3A9 CALLDATASIZE PUSH1 0x4 PUSH2 0xF5F JUMP JUMPDEST PUSH2 0xDE3 JUMP JUMPDEST PUSH2 0x3B6 PUSH2 0xE20 JUMP JUMPDEST PUSH1 0x1 PUSH1 0x1 PUSH1 0xA0 SHL SUB SWAP1 SWAP6 AND PUSH0 SWAP1 DUP2 MSTORE PUSH1 0x7 PUSH1 0x20 MSTORE PUSH1 0x40 SWAP1 KECCAK256 PUSH1 0x2 DUP2 ADD SWAP5 SWAP1 SWAP5 SSTORE PUSH1 0x3 DUP5 ADD SWAP3 SWAP1 SWAP3 SSTORE PUSH1 0x4 DUP4 ADD SSTORE PUSH1 0x5 DUP3 ADD SSTORE PUSH1 0x6 ADD SSTORE JUMP JUMPDEST PUSH2 0x3F6 PUSH2 0xE20 JUMP JUMPDEST PUSH1 0x2 DUP1 SLOAD PUSH1 0x1 PUSH1 0x1 PUSH1 0xA0 SHL SUB NOT AND PUSH1 0x1 PUSH1 0x1 PUSH1 0xA0 SHL SUB SWAP3 SWAP1 SWAP3 AND SWAP2 SWAP1 SWAP2 OR SWAP1 SSTORE JUMP JUMPDEST PUSH0 DUP3 DUP2 MSTORE PUSH1 0x4 PUSH1 0x20 SWAP1 DUP2 MSTORE PUSH1 0x40 DUP1 DUP4 KECCAK256 PUSH1 0x1 PUSH1 0x1 PUSH1 0xA0 SHL SUB DUP6 AND DUP5 MSTORE SWAP1 SWAP2 MSTORE SWAP1 KECCAK256 SLOAD PUSH1 0xFF AND JUMPDEST SWAP3 SWAP2 POP POP JUMP JUMPDEST PUSH1 0x1 PUSH1 0x1 PUSH1 0xA0 SHL SUB DUP4 AND PUSH0 SWAP1 DUP2 MSTORE PUSH1 0x6 PUSH1 0x20 MSTORE PUSH1 0x40 DUP2 KECCAK256 PUSH1 0x60 SWAP2 DUP3 SWAP2 DUP3 SWAP2 DUP3 SWAP2 DUP3 SWAP2 DUP3 SWAP2 SWAP1 PUSH2 0x473 DUP10 DUP12 PUSH2 0x135B JUMP JUMPDEST DUP3 SLOAD SWAP1 SWAP2 POP DUP2 GT ISZERO PUSH2 0x483 JUMPI POP DUP1 SLOAD JUMPDEST PUSH0 PUSH2 0x48E DUP12 DUP4 PUSH2 0x136E JUMP JUMPDEST SWAP1 POP DUP1 PUSH8 0xFFFFFFFFFFFFFFFF DUP2 GT ISZERO PUSH2 0x4A9 JUMPI PUSH2 0x4A9 PUSH2 0x11B0 JUMP JUMPDEST PUSH1 0x40 MLOAD SWAP1 DUP1 DUP3 MSTORE DUP1 PUSH1 0x20 MUL PUSH1 0x20 ADD DUP3 ADD PUSH1 0x40 MSTORE DUP1 ISZERO PUSH2 0x4D2 JUMPI DUP2 PUSH1 0x20 ADD PUSH1 0x20 DUP3 MUL DUP1 CALLDATASIZE DUP4 CALLDATACOPY ADD SWAP1 POP JUMPDEST POP SWAP9 POP DUP1 PUSH8 0xFFFFFFFFFFFFFFFF DUP2 GT ISZERO PUSH2 0x4EE JUMPI PUSH2 0x4EE PUSH2 0x11B0 JUMP JUMPDEST PUSH1 0x40 MLOAD SWAP1 DUP1 DUP3 MSTORE DUP1 PUSH1 0x20 MUL PUSH1 0x20 ADD DUP3 ADD PUSH1 0x40 MSTORE DUP1 ISZERO PUSH2 0x517 JUMPI DUP2 PUSH1 0x20 ADD PUSH1 0x20 DUP3 MUL DUP1 CALLDATASIZE DUP4 CALLDATACOPY ADD SWAP1 POP JUMPDEST POP SWAP8 POP DUP1 PUSH8 0xFFFFFFFFFFFFFFFF DUP2 GT ISZERO PUSH2 0x533 JUMPI PUSH2 0x533 PUSH2 0x11B0 JUMP JUMPDEST PUSH1 0x40 MLOAD SWAP1 DUP1 DUP3 MSTORE DUP1 PUSH1 0x20 MUL PUSH1 0x20 ADD DUP3 ADD PUSH1 0x40 MSTORE DUP1 ISZERO PUSH2 0x55C JUMPI DUP2 PUSH1 0x20 ADD PUSH1 0x20 DUP3 MUL DUP1 CALLDATASIZE DUP4 CALLDATACOPY ADD SWAP1 POP JUMPDEST POP SWAP7 POP DUP1 PUSH8 0xFFFFFFFFFFFFFFFF DUP2 GT ISZERO PUSH2 0x578 JUMPI PUSH2 0x578 PUSH2 0x11B0 JUMP JUMPDEST PUSH1 0x40 MLOAD SWAP1 DUP1 DUP3 MSTORE DUP1 PUSH1 0x20 MUL PUSH1 0x20 ADD DUP3 ADD PUSH1 0x40 MSTORE DUP1 ISZERO PUSH2 0x5AB JUMPI DUP2 PUSH1 0x20 ADD JUMPDEST PUSH1 0x60 DUP2 MSTORE PUSH1 0x20 ADD SWAP1 PUSH1 0x1 SWAP1 SUB SWAP1 DUP2 PUSH2 0x596 JUMPI SWAP1 POP JUMPDEST POP SWAP6 POP DUP1 PUSH8 0xFFFFFFFFFFFFFFFF DUP2 GT ISZERO PUSH2 0x5C7 JUMPI PUSH2 0x5C7 PUSH2 0x11B0 JUMP JUMPDEST PUSH1 0x40 MLOAD SWAP1 DUP1 DUP3 MSTORE DUP1 PUSH1 0x20 MUL PUSH1 0x20 ADD DUP3 ADD PUSH1 0x40 MSTORE DUP1 ISZERO PUSH2 0x5F0 JUMPI DUP2 PUSH1 0x20 ADD PUSH1 0x20 DUP3 MUL DUP1 CALLDATASIZE DUP4 CALLDATACOPY ADD SWAP1 POP JUMPDEST POP SWAP5 POP DUP1 PUSH8 0xFFFFFFFFFFFFFFFF DUP2 GT ISZERO PUSH2 0x60C JUMPI PUSH2 0x60C PUSH2 0x11B0 JUMP JUMPDEST PUSH1 0x40 MLOAD SWAP1 DUP1 DUP3 MSTORE DUP1 PUSH1 0x20 MUL PUSH1 0x20 ADD DUP3 ADD PUSH1 0x40 MSTORE DUP1 ISZERO PUSH2 0x635 JUMPI DUP2 PUSH1 0x20 ADD PUSH1 0x20 DUP3 MUL DUP1 CALLDATASIZE DUP4 CALLDATACOPY ADD SWAP1 POP JUMPDEST POP SWAP4 POP PUSH0 JUMPDEST DUP2 DUP2 LT ISZERO PUSH2 0x802 JUMPI PUSH0 DUP5 PUSH2 0x64E DUP4 DUP16 PUSH2 0x135B JUMP JUMPDEST DUP2 SLOAD DUP2 LT PUSH2 0x65E JUMPI PUSH2 0x65E PUSH2 0x1381 JUMP JUMPDEST SWAP1 PUSH0 MSTORE PUSH1 0x20 PUSH0 KECCAK256 ADD SLOAD SWAP1 POP PUSH0 PUSH1 0x5 PUSH0 DUP4 DUP2 MSTORE PUSH1 0x20 ADD SWAP1 DUP2 MSTORE PUSH1 0x20 ADD PUSH0 KECCAK256 SWAP1 POP DUP2 DUP13 DUP5 DUP2 MLOAD DUP2 LT PUSH2 0x690 JUMPI PUSH2 0x690 PUSH2 0x1381 JUMP JUMPDEST PUSH1 0x20 SWAP1 DUP2 MUL SWAP2 SWAP1 SWAP2 ADD ADD MSTORE PUSH1 0x1 DUP2 ADD SLOAD DUP12 MLOAD PUSH1 0x1 PUSH1 0x1 PUSH1 0xA0 SHL SUB SWAP1 SWAP2 AND SWAP1 DUP13 SWAP1 DUP6 SWAP1 DUP2 LT PUSH2 0x6C0 JUMPI PUSH2 0x6C0 PUSH2 0x1381 JUMP JUMPDEST PUSH1 0x1 PUSH1 0x1 PUSH1 0xA0 SHL SUB SWAP1 SWAP3 AND PUSH1 0x20 SWAP3 DUP4 MUL SWAP2 SWAP1 SWAP2 ADD SWAP1 SWAP2 ADD MSTORE PUSH1 0x4 DUP2 ADD SLOAD DUP11 MLOAD PUSH1 0xFF SWAP1 SWAP2 AND SWAP1 DUP12 SWAP1 DUP6 SWAP1 DUP2 LT PUSH2 0x6F7 JUMPI PUSH2 0x6F7 PUSH2 0x1381 JUMP JUMPDEST PUSH1 0x20 MUL PUSH1 0x20 ADD ADD SWAP1 PUSH1 0xFF AND SWAP1 DUP2 PUSH1 0xFF AND DUP2 MSTORE POP POP DUP1 PUSH1 0x5 ADD DUP1 SLOAD PUSH2 0x71A SWAP1 PUSH2 0x1395 JUMP JUMPDEST DUP1 PUSH1 0x1F ADD PUSH1 0x20 DUP1 SWAP2 DIV MUL PUSH1 0x20 ADD PUSH1 0x40 MLOAD SWAP1 DUP2 ADD PUSH1 0x40 MSTORE DUP1 SWAP3 SWAP2 SWAP1 DUP2 DUP2 MSTORE PUSH1 0x20 ADD DUP3 DUP1 SLOAD PUSH2 0x746 SWAP1 PUSH2 0x1395 JUMP JUMPDEST DUP1 ISZERO PUSH2 0x791 JUMPI DUP1 PUSH1 0x1F LT PUSH2 0x768 JUMPI PUSH2 0x100 DUP1 DUP4 SLOAD DIV MUL DUP4 MSTORE SWAP2 PUSH1 0x20 ADD SWAP2 PUSH2 0x791 JUMP JUMPDEST DUP3 ADD SWAP2 SWAP1 PUSH0 MSTORE PUSH1 0x20 PUSH0 KECCAK256 SWAP1 JUMPDEST DUP2 SLOAD DUP2 MSTORE SWAP1 PUSH1 0x1 ADD SWAP1 PUSH1 0x20 ADD DUP1 DUP4 GT PUSH2 0x774 JUMPI DUP3 SWAP1 SUB PUSH1 0x1F AND DUP3 ADD SWAP2 JUMPDEST POP POP POP POP POP DUP10 DUP5 DUP2 MLOAD DUP2 LT PUSH2 0x7A8 JUMPI PUSH2 0x7A8 PUSH2 0x1381 JUMP JUMPDEST PUSH1 0x20 MUL PUSH1 0x20 ADD ADD DUP2 SWAP1 MSTORE POP DUP1 PUSH1 0x3 ADD SLOAD DUP9 DUP5 DUP2 MLOAD DUP2 LT PUSH2 0x7CA JUMPI PUSH2 0x7CA PUSH2 0x1381 JUMP JUMPDEST PUSH1 0x20 MUL PUSH1 0x20 ADD ADD DUP2 DUP2 MSTORE POP POP DUP1 PUSH1 0x6 ADD SLOAD DUP8 DUP5 DUP2 MLOAD DUP2 LT PUSH2 0x7ED JUMPI PUSH2 0x7ED PUSH2 0x1381 JUMP JUMPDEST PUSH1 0x20 SWAP1 DUP2 MUL SWAP2 SWAP1 SWAP2 ADD ADD MSTORE POP POP PUSH1 0x1 ADD PUSH2 0x63A JUMP JUMPDEST POP POP POP POP SWAP4 SWAP8 POP SWAP4 SWAP8 SWAP2 SWAP6 POP SWAP4 POP JUMP JUMPDEST PUSH1 0x1 PUSH1 0x1 PUSH1 0xA0 SHL SUB DUP2 AND PUSH0 SWAP1 DUP2 MSTORE PUSH1 0x7 PUSH1 0x20 MSTORE PUSH1 0x40 DUP2 KECCAK256 PUSH1 0x1 DUP2 ADD SLOAD DUP3 SUB PUSH2 0x83C JUMPI POP PUSH0 SWAP3 SWAP2 POP POP JUMP JUMPDEST DUP1 SLOAD PUSH0 SWAP1 PUSH2 0x1F4 SWAP1 PUSH2 0x84F SWAP1 PUSH1 0x3C PUSH2 0x13CD JUMP JUMPDEST PUSH2 0x859 SWAP2 SWAP1 PUSH2 0x13E4 JUMP JUMPDEST SWAP1 POP PUSH0 PUSH2 0x2710 DUP4 PUSH1 0x6 ADD SLOAD PUSH1 0x1E PUSH2 0x870 SWAP2 SWAP1 PUSH2 0x13CD JUMP JUMPDEST PUSH2 0x87A SWAP2 SWAP1 PUSH2 0x13E4 JUMP JUMPDEST SWAP1 POP PUSH0 PUSH1 0x64 DUP5 PUSH1 0x2 ADD SLOAD GT PUSH2 0x8AB JUMPI PUSH1 0x64 DUP5 PUSH1 0x2 ADD SLOAD PUSH1 0xA PUSH2 0x89C SWAP2 SWAP1 PUSH2 0x13CD JUMP JUMPDEST PUSH2 0x8A6 SWAP2 SWAP1 PUSH2 0x13E4 JUMP JUMPDEST PUSH2 0x8AE JUMP JUMPDEST PUSH1 0xA JUMPDEST SWAP1 POP DUP1 PUSH2 0x8BB DUP4 DUP6 PUSH2 0x135B JUMP JUMPDEST PUSH2 0x8C5 SWAP2 SWAP1 PUSH2 0x135B JUMP JUMPDEST SWAP7 SWAP6 POP POP POP POP POP POP JUMP JUMPDEST PUSH2 0x8D7 PUSH2 0xE20 JUMP JUMPDEST PUSH2 0x8E0 PUSH0 PUSH2 0xE4C JUMP JUMPDEST JUMP JUMPDEST PUSH1 0x1 DUP3 PUSH1 0xFF AND LT ISZERO DUP1 ISZERO PUSH2 0x8FA JUMPI POP PUSH1 0x5 DUP3 PUSH1 0xFF AND GT ISZERO JUMPDEST PUSH2 0x940 JUMPI PUSH1 0x40 MLOAD PUSH3 0x461BCD PUSH1 0xE5 SHL DUP2 MSTORE PUSH1 0x20 PUSH1 0x4 DUP3 ADD MSTORE PUSH1 0x12 PUSH1 0x24 DUP3 ADD MSTORE PUSH18 0x526174696E67206D75737420626520312D35 PUSH1 0x70 SHL PUSH1 0x44 DUP3 ADD MSTORE PUSH1 0x64 ADD JUMPDEST PUSH1 0x40 MLOAD DUP1 SWAP2 SUB SWAP1 REVERT JUMPDEST PUSH0 DUP4 DUP2 MSTORE PUSH1 0x4 PUSH1 0x20 SWAP1 DUP2 MSTORE PUSH1 0x40 DUP1 DUP4 KECCAK256 CALLER DUP5 MSTORE SWAP1 SWAP2 MSTORE SWAP1 KECCAK256 SLOAD PUSH1 0xFF AND ISZERO PUSH2 0x99C JUMPI PUSH1 0x40 MLOAD PUSH3 0x461BCD PUSH1 0xE5 SHL DUP2 MSTORE PUSH1 0x20 PUSH1 0x4 DUP3 ADD MSTORE PUSH1 0x10 PUSH1 0x24 DUP3 ADD MSTORE PUSH16 0x105B1C9958591E481C995D9A595DD959 PUSH1 0x82 SHL PUSH1 0x44 DUP3 ADD MSTORE PUSH1 0x64 ADD PUSH2 0x937 JUMP JUMPDEST PUSH1 0x1 SLOAD PUSH1 0x40 MLOAD PUSH4 0xEB2F3BF PUSH1 0xE1 SHL DUP2 MSTORE PUSH1 0x4 DUP2 ADD DUP6 SWAP1 MSTORE PUSH0 SWAP2 DUP3 SWAP2 DUP3 SWAP2 PUSH1 0x1 PUSH1 0x1 PUSH1 0xA0 SHL SUB AND SWAP1 PUSH4 0x1D65E77E SWAP1 PUSH1 0x24 ADD PUSH0 PUSH1 0x40 MLOAD DUP1 DUP4 SUB DUP2 DUP7 GAS STATICCALL ISZERO DUP1 ISZERO PUSH2 0x9E6 JUMPI RETURNDATASIZE PUSH0 DUP1 RETURNDATACOPY RETURNDATASIZE PUSH0 REVERT JUMPDEST POP POP POP POP PUSH1 0x40 MLOAD RETURNDATASIZE PUSH0 DUP3 RETURNDATACOPY PUSH1 0x1F RETURNDATASIZE SWAP1 DUP2 ADD PUSH1 0x1F NOT AND DUP3 ADD PUSH1 0x40 MSTORE PUSH2 0xA0D SWAP2 SWAP1 DUP2 ADD SWAP1 PUSH2 0x145D JUMP JUMPDEST POP POP POP POP SWAP5 POP POP POP SWAP3 POP SWAP3 POP DUP1 PUSH1 0xFF AND PUSH1 0x5 EQ PUSH2 0xA5C JUMPI PUSH1 0x40 MLOAD PUSH3 0x461BCD PUSH1 0xE5 SHL DUP2 MSTORE PUSH1 0x20 PUSH1 0x4 DUP3 ADD MSTORE PUSH1 0xD PUSH1 0x24 DUP3 ADD MSTORE PUSH13 0x15185CDAC81B9BDD081C185A59 PUSH1 0x9A SHL PUSH1 0x44 DUP3 ADD MSTORE PUSH1 0x64 ADD PUSH2 0x937 JUMP JUMPDEST CALLER PUSH1 0x1 PUSH1 0x1 PUSH1 0xA0 SHL SUB DUP5 AND EQ DUP1 PUSH2 0xA7B JUMPI POP CALLER PUSH1 0x1 PUSH1 0x1 PUSH1 0xA0 SHL SUB DUP4 AND EQ JUMPDEST PUSH2 0xAB6 JUMPI PUSH1 0x40 MLOAD PUSH3 0x461BCD PUSH1 0xE5 SHL DUP2 MSTORE PUSH1 0x20 PUSH1 0x4 DUP3 ADD MSTORE PUSH1 0xC PUSH1 0x24 DUP3 ADD MSTORE PUSH12 0x139BDD081A5B9D9BDB1D9959 PUSH1 0xA2 SHL PUSH1 0x44 DUP3 ADD MSTORE PUSH1 0x64 ADD PUSH2 0x937 JUMP JUMPDEST PUSH0 CALLER PUSH1 0x1 PUSH1 0x1 PUSH1 0xA0 SHL SUB DUP6 AND EQ PUSH2 0xACD JUMPI DUP4 PUSH2 0xACF JUMP JUMPDEST DUP3 JUMPDEST SWAP1 POP PUSH1 0x1 PUSH1 0x1 PUSH1 0xA0 SHL SUB DUP2 AND CALLER SUB PUSH2 0xB1E JUMPI PUSH1 0x40 MLOAD PUSH3 0x461BCD PUSH1 0xE5 SHL DUP2 MSTORE PUSH1 0x20 PUSH1 0x4 DUP3 ADD MSTORE PUSH1 0x12 PUSH1 0x24 DUP3 ADD MSTORE PUSH18 0x43616E6E6F742073656C662D726576696577 PUSH1 0x70 SHL PUSH1 0x44 DUP3 ADD MSTORE PUSH1 0x64 ADD PUSH2 0x937 JUMP JUMPDEST PUSH0 DUP8 DUP2 MSTORE PUSH1 0x4 PUSH1 0x20 SWAP1 DUP2 MSTORE PUSH1 0x40 DUP1 DUP4 KECCAK256 CALLER DUP5 MSTORE SWAP1 SWAP2 MSTORE DUP2 KECCAK256 DUP1 SLOAD PUSH1 0xFF NOT AND PUSH1 0x1 OR SWAP1 SSTORE PUSH1 0x3 DUP1 SLOAD SWAP1 DUP3 PUSH2 0xB50 DUP4 PUSH2 0x1518 JUMP JUMPDEST SWAP1 SWAP2 SSTORE POP PUSH0 DUP2 DUP2 MSTORE PUSH1 0x5 PUSH1 0x20 DUP2 SWAP1 MSTORE PUSH1 0x40 SWAP1 SWAP2 KECCAK256 DUP3 DUP2 SSTORE PUSH1 0x1 DUP2 ADD DUP1 SLOAD CALLER PUSH1 0x1 PUSH1 0x1 PUSH1 0xA0 SHL SUB NOT SWAP2 DUP3 AND OR SWAP1 SWAP2 SSTORE PUSH1 0x2 DUP3 ADD DUP1 SLOAD SWAP1 SWAP2 AND PUSH1 0x1 PUSH1 0x1 PUSH1 0xA0 SHL SUB DUP8 AND OR SWAP1 SSTORE PUSH1 0x3 DUP2 ADD DUP12 SWAP1 SSTORE PUSH1 0x4 DUP2 ADD DUP1 SLOAD PUSH1 0xFF NOT AND PUSH1 0xFF DUP13 AND OR SWAP1 SSTORE SWAP2 SWAP3 POP DUP2 ADD PUSH2 0xBBB DUP9 DUP3 PUSH2 0x157C JUMP JUMPDEST POP TIMESTAMP PUSH1 0x6 DUP1 DUP4 ADD SWAP2 SWAP1 SWAP2 SSTORE PUSH1 0x1 PUSH1 0x1 PUSH1 0xA0 SHL SUB DUP5 AND PUSH0 SWAP1 DUP2 MSTORE PUSH1 0x20 SWAP2 DUP3 MSTORE PUSH1 0x40 DUP2 KECCAK256 DUP1 SLOAD PUSH1 0x1 DUP2 ADD DUP3 SSTORE SWAP1 DUP3 MSTORE SWAP2 SWAP1 KECCAK256 ADD DUP3 SWAP1 SSTORE PUSH2 0xBFC DUP4 PUSH1 0xFF DUP11 AND PUSH2 0xE9B JUMP JUMPDEST PUSH1 0x2 SLOAD PUSH1 0x40 MLOAD PUSH4 0x4E63F9B1 PUSH1 0xE0 SHL DUP2 MSTORE PUSH1 0x1 PUSH1 0x1 PUSH1 0xA0 SHL SUB DUP6 DUP2 AND PUSH1 0x4 DUP4 ADD MSTORE PUSH1 0xFF DUP12 AND PUSH1 0x24 DUP4 ADD MSTORE SWAP1 SWAP2 AND SWAP1 PUSH4 0x4E63F9B1 SWAP1 PUSH1 0x44 ADD PUSH0 PUSH1 0x40 MLOAD DUP1 DUP4 SUB DUP2 PUSH0 DUP8 DUP1 EXTCODESIZE ISZERO DUP1 ISZERO PUSH2 0xC49 JUMPI PUSH0 DUP1 REVERT JUMPDEST POP GAS CALL ISZERO DUP1 ISZERO PUSH2 0xC5B JUMPI RETURNDATASIZE PUSH0 DUP1 RETURNDATACOPY RETURNDATASIZE PUSH0 REVERT JUMPDEST POP POP PUSH1 0x40 DUP1 MLOAD PUSH1 0x1 PUSH1 0x1 PUSH1 0xA0 SHL SUB DUP8 AND DUP2 MSTORE PUSH1 0x20 DUP2 ADD DUP14 SWAP1 MSTORE PUSH1 0xFF DUP13 AND DUP2 DUP4 ADD MSTORE SWAP1 MLOAD CALLER SWAP4 POP DUP6 SWAP3 POP PUSH32 0x53EBDEE98743CC6259192725DFD8A86BB1CB758884089994611341C6FD279574 SWAP2 DUP2 SWAP1 SUB PUSH1 0x60 ADD SWAP1 LOG3 POP POP POP POP POP POP POP POP POP JUMP JUMPDEST PUSH1 0x6 PUSH1 0x20 MSTORE DUP2 PUSH0 MSTORE PUSH1 0x40 PUSH0 KECCAK256 DUP2 DUP2 SLOAD DUP2 LT PUSH2 0xCD2 JUMPI PUSH0 DUP1 REVERT JUMPDEST SWAP1 PUSH0 MSTORE PUSH1 0x20 PUSH0 KECCAK256 ADD PUSH0 SWAP2 POP SWAP2 POP POP SLOAD DUP2 JUMP JUMPDEST PUSH2 0xCEC PUSH2 0xE20 JUMP JUMPDEST PUSH1 0x1 DUP1 SLOAD PUSH1 0x1 PUSH1 0x1 PUSH1 0xA0 SHL SUB NOT AND PUSH1 0x1 PUSH1 0x1 PUSH1 0xA0 SHL SUB SWAP3 SWAP1 SWAP3 AND SWAP2 SWAP1 SWAP2 OR SWAP1 SSTORE JUMP JUMPDEST PUSH1 0x5 PUSH1 0x20 DUP2 SWAP1 MSTORE PUSH0 SWAP2 DUP3 MSTORE PUSH1 0x40 SWAP1 SWAP2 KECCAK256 DUP1 SLOAD PUSH1 0x1 DUP3 ADD SLOAD PUSH1 0x2 DUP4 ADD SLOAD PUSH1 0x3 DUP5 ADD SLOAD PUSH1 0x4 DUP6 ADD SLOAD SWAP6 DUP6 ADD DUP1 SLOAD SWAP5 SWAP7 PUSH1 0x1 PUSH1 0x1 PUSH1 0xA0 SHL SUB SWAP5 DUP6 AND SWAP7 SWAP4 SWAP1 SWAP5 AND SWAP5 SWAP2 SWAP4 PUSH1 0xFF AND SWAP3 SWAP2 PUSH2 0xD5C SWAP1 PUSH2 0x1395 JUMP JUMPDEST DUP1 PUSH1 0x1F ADD PUSH1 0x20 DUP1 SWAP2 DIV MUL PUSH1 0x20 ADD PUSH1 0x40 MLOAD SWAP1 DUP2 ADD PUSH1 0x40 MSTORE DUP1 SWAP3 SWAP2 SWAP1 DUP2 DUP2 MSTORE PUSH1 0x20 ADD DUP3 DUP1 SLOAD PUSH2 0xD88 SWAP1 PUSH2 0x1395 JUMP JUMPDEST DUP1 ISZERO PUSH2 0xDD3 JUMPI DUP1 PUSH1 0x1F LT PUSH2 0xDAA JUMPI PUSH2 0x100 DUP1 DUP4 SLOAD DIV MUL DUP4 MSTORE SWAP2 PUSH1 0x20 ADD SWAP2 PUSH2 0xDD3 JUMP JUMPDEST DUP3 ADD SWAP2 SWAP1 PUSH0 MSTORE PUSH1 0x20 PUSH0 KECCAK256 SWAP1 JUMPDEST DUP2 SLOAD DUP2 MSTORE SWAP1 PUSH1 0x1 ADD SWAP1 PUSH1 0x20 ADD DUP1 DUP4 GT PUSH2 0xDB6 JUMPI DUP3 SWAP1 SUB PUSH1 0x1F AND DUP3 ADD SWAP2 JUMPDEST POP POP POP POP POP SWAP1 DUP1 PUSH1 0x6 ADD SLOAD SWAP1 POP DUP8 JUMP JUMPDEST PUSH2 0xDEB PUSH2 0xE20 JUMP JUMPDEST PUSH1 0x1 PUSH1 0x1 PUSH1 0xA0 SHL SUB DUP2 AND PUSH2 0xE14 JUMPI PUSH1 0x40 MLOAD PUSH4 0x1E4FBDF7 PUSH1 0xE0 SHL DUP2 MSTORE PUSH0 PUSH1 0x4 DUP3 ADD MSTORE PUSH1 0x24 ADD PUSH2 0x937 JUMP JUMPDEST PUSH2 0xE1D DUP2 PUSH2 0xE4C JUMP JUMPDEST POP JUMP JUMPDEST PUSH0 SLOAD PUSH1 0x1 PUSH1 0x1 PUSH1 0xA0 SHL SUB AND CALLER EQ PUSH2 0x8E0 JUMPI PUSH1 0x40 MLOAD PUSH4 0x118CDAA7 PUSH1 0xE0 SHL DUP2 MSTORE CALLER PUSH1 0x4 DUP3 ADD MSTORE PUSH1 0x24 ADD PUSH2 0x937 JUMP JUMPDEST PUSH0 DUP1 SLOAD PUSH1 0x1 PUSH1 0x1 PUSH1 0xA0 SHL SUB DUP4 DUP2 AND PUSH1 0x1 PUSH1 0x1 PUSH1 0xA0 SHL SUB NOT DUP4 AND DUP2 OR DUP5 SSTORE PUSH1 0x40 MLOAD SWAP2 SWAP1 SWAP3 AND SWAP3 DUP4 SWAP2 PUSH32 0x8BE0079C531659141344CD1FD0A4F28419497F9722A3DAAFE3B4186F6B6457E0 SWAP2 SWAP1 LOG3 POP POP JUMP JUMPDEST PUSH1 0x1 PUSH1 0x1 PUSH1 0xA0 SHL SUB DUP3 AND PUSH0 SWAP1 DUP2 MSTORE PUSH1 0x7 PUSH1 0x20 MSTORE PUSH1 0x40 DUP2 KECCAK256 PUSH1 0x1 DUP2 ADD SLOAD DUP2 SLOAD SWAP2 SWAP3 SWAP2 DUP5 SWAP2 PUSH2 0xEC7 SWAP2 PUSH2 0x13CD JUMP JUMPDEST PUSH2 0xED1 SWAP2 SWAP1 PUSH2 0x135B JUMP JUMPDEST SWAP1 POP PUSH1 0x1 DUP3 PUSH1 0x1 ADD PUSH0 DUP3 DUP3 SLOAD PUSH2 0xEE7 SWAP2 SWAP1 PUSH2 0x135B JUMP JUMPDEST SWAP1 SWAP2 SSTORE POP POP PUSH1 0x1 DUP3 ADD SLOAD PUSH2 0xEFB SWAP1 DUP3 PUSH2 0x13E4 JUMP JUMPDEST SWAP1 SWAP2 SSTORE POP POP POP JUMP JUMPDEST PUSH1 0x1 PUSH1 0x1 PUSH1 0xA0 SHL SUB DUP2 AND DUP2 EQ PUSH2 0xE1D JUMPI PUSH0 DUP1 REVERT JUMPDEST PUSH0 DUP1 PUSH0 DUP1 PUSH0 DUP1 PUSH1 0xC0 DUP8 DUP10 SUB SLT ISZERO PUSH2 0xF2C JUMPI PUSH0 DUP1 REVERT JUMPDEST DUP7 CALLDATALOAD PUSH2 0xF37 DUP2 PUSH2 0xF03 JUMP JUMPDEST SWAP9 PUSH1 0x20 DUP9 ADD CALLDATALOAD SWAP9 POP PUSH1 0x40 DUP9 ADD CALLDATALOAD SWAP8 PUSH1 0x60 DUP2 ADD CALLDATALOAD SWAP8 POP PUSH1 0x80 DUP2 ADD CALLDATALOAD SWAP7 POP PUSH1 0xA0 ADD CALLDATALOAD SWAP5 POP SWAP3 POP POP POP JUMP JUMPDEST PUSH0 PUSH1 0x20 DUP3 DUP5 SUB SLT ISZERO PUSH2 0xF6F JUMPI PUSH0 DUP1 REVERT JUMPDEST DUP2 CALLDATALOAD PUSH2 0xF7A DUP2 PUSH2 0xF03 JUMP JUMPDEST SWAP4 SWAP3 POP POP POP JUMP JUMPDEST PUSH0 DUP1 PUSH1 0x40 DUP4 DUP6 SUB SLT ISZERO PUSH2 0xF92 JUMPI PUSH0 DUP1 REVERT JUMPDEST DUP3 CALLDATALOAD SWAP2 POP PUSH1 0x20 DUP4 ADD CALLDATALOAD PUSH2 0xFA4 DUP2 PUSH2 0xF03 JUMP JUMPDEST DUP1 SWAP2 POP POP SWAP3 POP SWAP3 SWAP1 POP JUMP JUMPDEST PUSH0 DUP1 PUSH0 PUSH1 0x60 DUP5 DUP7 SUB SLT ISZERO PUSH2 0xFC1 JUMPI PUSH0 DUP1 REVERT JUMPDEST DUP4 CALLDATALOAD PUSH2 0xFCC DUP2 PUSH2 0xF03 JUMP JUMPDEST SWAP6 PUSH1 0x20 DUP6 ADD CALLDATALOAD SWAP6 POP PUSH1 0x40 SWAP1 SWAP5 ADD CALLDATALOAD SWAP4 SWAP3 POP POP POP JUMP JUMPDEST PUSH0 DUP2 MLOAD DUP1 DUP5 MSTORE PUSH1 0x20 DUP1 DUP6 ADD SWAP5 POP PUSH1 0x20 DUP5 ADD PUSH0 JUMPDEST DUP4 DUP2 LT ISZERO PUSH2 0x1010 JUMPI DUP2 MLOAD DUP8 MSTORE SWAP6 DUP3 ADD SWAP6 SWAP1 DUP3 ADD SWAP1 PUSH1 0x1 ADD PUSH2 0xFF4 JUMP JUMPDEST POP SWAP5 SWAP6 SWAP5 POP POP POP POP POP JUMP JUMPDEST PUSH0 DUP2 MLOAD DUP1 DUP5 MSTORE PUSH1 0x20 DUP1 DUP6 ADD SWAP5 POP PUSH1 0x20 DUP5 ADD PUSH0 JUMPDEST DUP4 DUP2 LT ISZERO PUSH2 0x1010 JUMPI DUP2 MLOAD PUSH1 0xFF AND DUP8 MSTORE SWAP6 DUP3 ADD SWAP6 SWAP1 DUP3 ADD SWAP1 PUSH1 0x1 ADD PUSH2 0x102E JUMP JUMPDEST PUSH0 JUMPDEST DUP4 DUP2 LT ISZERO PUSH2 0x1067 JUMPI DUP2 DUP2 ADD MLOAD DUP4 DUP3 ADD MSTORE PUSH1 0x20 ADD PUSH2 0x104F JUMP JUMPDEST POP POP PUSH0 SWAP2 ADD MSTORE JUMP JUMPDEST PUSH0 DUP2 MLOAD DUP1 DUP5 MSTORE PUSH2 0x1086 DUP2 PUSH1 0x20 DUP7 ADD PUSH1 0x20 DUP7 ADD PUSH2 0x104D JUMP JUMPDEST PUSH1 0x1F ADD PUSH1 0x1F NOT AND SWAP3 SWAP1 SWAP3 ADD PUSH1 0x20 ADD SWAP3 SWAP2 POP POP JUMP JUMPDEST PUSH0 DUP3 DUP3 MLOAD DUP1 DUP6 MSTORE PUSH1 0x20 DUP1 DUP7 ADD SWAP6 POP PUSH1 0x20 DUP3 PUSH1 0x5 SHL DUP5 ADD ADD PUSH1 0x20 DUP7 ADD PUSH0 JUMPDEST DUP5 DUP2 LT ISZERO PUSH2 0x10E5 JUMPI PUSH1 0x1F NOT DUP7 DUP5 SUB ADD DUP10 MSTORE PUSH2 0x10D3 DUP4 DUP4 MLOAD PUSH2 0x106F JUMP JUMPDEST SWAP9 DUP5 ADD SWAP9 SWAP3 POP SWAP1 DUP4 ADD SWAP1 PUSH1 0x1 ADD PUSH2 0x10B7 JUMP JUMPDEST POP SWAP1 SWAP8 SWAP7 POP POP POP POP POP POP POP JUMP JUMPDEST PUSH1 0xC0 DUP2 MSTORE PUSH0 PUSH2 0x1104 PUSH1 0xC0 DUP4 ADD DUP10 PUSH2 0xFE1 JUMP JUMPDEST DUP3 DUP2 SUB PUSH1 0x20 DUP5 DUP2 ADD SWAP2 SWAP1 SWAP2 MSTORE DUP9 MLOAD DUP1 DUP4 MSTORE DUP10 DUP3 ADD SWAP3 DUP3 ADD SWAP1 PUSH0 JUMPDEST DUP2 DUP2 LT ISZERO PUSH2 0x1143 JUMPI DUP5 MLOAD PUSH1 0x1 PUSH1 0x1 PUSH1 0xA0 SHL SUB AND DUP4 MSTORE SWAP4 DUP4 ADD SWAP4 SWAP2 DUP4 ADD SWAP2 PUSH1 0x1 ADD PUSH2 0x111E JUMP JUMPDEST POP POP DUP5 DUP2 SUB PUSH1 0x40 DUP7 ADD MSTORE PUSH2 0x1157 DUP2 DUP11 PUSH2 0x101B JUMP JUMPDEST SWAP3 POP POP POP DUP3 DUP2 SUB PUSH1 0x60 DUP5 ADD MSTORE PUSH2 0x116D DUP2 DUP8 PUSH2 0x109A JUMP JUMPDEST SWAP1 POP DUP3 DUP2 SUB PUSH1 0x80 DUP5 ADD MSTORE PUSH2 0x1181 DUP2 DUP7 PUSH2 0xFE1 JUMP JUMPDEST SWAP1 POP DUP3 DUP2 SUB PUSH1 0xA0 DUP5 ADD MSTORE PUSH2 0x1195 DUP2 DUP6 PUSH2 0xFE1 JUMP JUMPDEST SWAP10 SWAP9 POP POP POP POP POP POP POP POP POP JUMP JUMPDEST PUSH1 0xFF DUP2 AND DUP2 EQ PUSH2 0xE1D JUMPI PUSH0 DUP1 REVERT JUMPDEST PUSH4 0x4E487B71 PUSH1 0xE0 SHL PUSH0 MSTORE PUSH1 0x41 PUSH1 0x4 MSTORE PUSH1 0x24 PUSH0 REVERT JUMPDEST PUSH1 0x40 MLOAD PUSH1 0x1F DUP3 ADD PUSH1 0x1F NOT AND DUP2 ADD PUSH8 0xFFFFFFFFFFFFFFFF DUP2 GT DUP3 DUP3 LT OR ISZERO PUSH2 0x11ED JUMPI PUSH2 0x11ED PUSH2 0x11B0 JUMP JUMPDEST PUSH1 0x40 MSTORE SWAP2 SWAP1 POP JUMP JUMPDEST PUSH0 PUSH8 0xFFFFFFFFFFFFFFFF DUP3 GT ISZERO PUSH2 0x120E JUMPI PUSH2 0x120E PUSH2 0x11B0 JUMP JUMPDEST POP PUSH1 0x1F ADD PUSH1 0x1F NOT AND PUSH1 0x20 ADD SWAP1 JUMP JUMPDEST PUSH0 DUP1 PUSH0 PUSH1 0x60 DUP5 DUP7 SUB SLT ISZERO PUSH2 0x122E JUMPI PUSH0 DUP1 REVERT JUMPDEST DUP4 CALLDATALOAD SWAP3 POP PUSH1 0x20 DUP5 ADD CALLDATALOAD PUSH2 0x1240 DUP2 PUSH2 0x11A2 JUMP JUMPDEST SWAP2 POP PUSH1 0x40 DUP5 ADD CALLDATALOAD PUSH8 0xFFFFFFFFFFFFFFFF DUP2 GT ISZERO PUSH2 0x125B JUMPI PUSH0 DUP1 REVERT JUMPDEST DUP5 ADD PUSH1 0x1F DUP2 ADD DUP7 SGT PUSH2 0x126B JUMPI PUSH0 DUP1 REVERT JUMPDEST DUP1 CALLDATALOAD PUSH2 0x127E PUSH2 0x1279 DUP3 PUSH2 0x11F5 JUMP JUMPDEST PUSH2 0x11C4 JUMP JUMPDEST DUP2 DUP2 MSTORE DUP8 PUSH1 0x20 DUP4 DUP6 ADD ADD GT ISZERO PUSH2 0x1292 JUMPI PUSH0 DUP1 REVERT JUMPDEST DUP2 PUSH1 0x20 DUP5 ADD PUSH1 0x20 DUP4 ADD CALLDATACOPY PUSH0 PUSH1 0x20 DUP4 DUP4 ADD ADD MSTORE DUP1 SWAP4 POP POP POP POP SWAP3 POP SWAP3 POP SWAP3 JUMP JUMPDEST PUSH0 DUP1 PUSH1 0x40 DUP4 DUP6 SUB SLT ISZERO PUSH2 0x12C2 JUMPI PUSH0 DUP1 REVERT JUMPDEST DUP3 CALLDATALOAD PUSH2 0x12CD DUP2 PUSH2 0xF03 JUMP JUMPDEST SWAP5 PUSH1 0x20 SWAP4 SWAP1 SWAP4 ADD CALLDATALOAD SWAP4 POP POP POP JUMP JUMPDEST PUSH0 PUSH1 0x20 DUP3 DUP5 SUB SLT ISZERO PUSH2 0x12EB JUMPI PUSH0 DUP1 REVERT JUMPDEST POP CALLDATALOAD SWAP2 SWAP1 POP JUMP JUMPDEST DUP8 DUP2 MSTORE PUSH1 0x1 PUSH1 0x1 PUSH1 0xA0 SHL SUB DUP8 DUP2 AND PUSH1 0x20 DUP4 ADD MSTORE DUP7 AND PUSH1 0x40 DUP3 ADD MSTORE PUSH1 0x60 DUP2 ADD DUP6 SWAP1 MSTORE PUSH1 0xFF DUP5 AND PUSH1 0x80 DUP3 ADD MSTORE PUSH1 0xE0 PUSH1 0xA0 DUP3 ADD DUP2 SWAP1 MSTORE PUSH0 SWAP1 PUSH2 0x1333 SWAP1 DUP4 ADD DUP6 PUSH2 0x106F JUMP JUMPDEST SWAP1 POP DUP3 PUSH1 0xC0 DUP4 ADD MSTORE SWAP9 SWAP8 POP POP POP POP POP POP POP POP JUMP JUMPDEST PUSH4 0x4E487B71 PUSH1 0xE0 SHL PUSH0 MSTORE PUSH1 0x11 PUSH1 0x4 MSTORE PUSH1 0x24 PUSH0 REVERT JUMPDEST DUP1 DUP3 ADD DUP1 DUP3 GT ISZERO PUSH2 0x43E JUMPI PUSH2 0x43E PUSH2 0x1347 JUMP JUMPDEST DUP2 DUP2 SUB DUP2 DUP2 GT ISZERO PUSH2 0x43E JUMPI PUSH2 0x43E PUSH2 0x1347 JUMP JUMPDEST PUSH4 0x4E487B71 PUSH1 0xE0 SHL PUSH0 MSTORE PUSH1 0x32 PUSH1 0x4 MSTORE PUSH1 0x24 PUSH0 REVERT JUMPDEST PUSH1 0x1 DUP2 DUP2 SHR SWAP1 DUP3 AND DUP1 PUSH2 0x13A9 JUMPI PUSH1 0x7F DUP3 AND SWAP2 POP JUMPDEST PUSH1 0x20 DUP3 LT DUP2 SUB PUSH2 0x13C7 JUMPI PUSH4 0x4E487B71 PUSH1 0xE0 SHL PUSH0 MSTORE PUSH1 0x22 PUSH1 0x4 MSTORE PUSH1 0x24 PUSH0 REVERT JUMPDEST POP SWAP2 SWAP1 POP JUMP JUMPDEST DUP1 DUP3 MUL DUP2 ISZERO DUP3 DUP3 DIV DUP5 EQ OR PUSH2 0x43E JUMPI PUSH2 0x43E PUSH2 0x1347 JUMP JUMPDEST PUSH0 DUP3 PUSH2 0x13FE JUMPI PUSH4 0x4E487B71 PUSH1 0xE0 SHL PUSH0 MSTORE PUSH1 0x12 PUSH1 0x4 MSTORE PUSH1 0x24 PUSH0 REVERT JUMPDEST POP DIV SWAP1 JUMP JUMPDEST PUSH0 DUP3 PUSH1 0x1F DUP4 ADD SLT PUSH2 0x1412 JUMPI PUSH0 DUP1 REVERT JUMPDEST DUP2 MLOAD PUSH2 0x1420 PUSH2 0x1279 DUP3 PUSH2 0x11F5 JUMP JUMPDEST DUP2 DUP2 MSTORE DUP5 PUSH1 0x20 DUP4 DUP7 ADD ADD GT ISZERO PUSH2 0x1434 JUMPI PUSH0 DUP1 REVERT JUMPDEST PUSH2 0x1445 DUP3 PUSH1 0x20 DUP4 ADD PUSH1 0x20 DUP8 ADD PUSH2 0x104D JUMP JUMPDEST SWAP5 SWAP4 POP POP POP POP JUMP JUMPDEST DUP1 MLOAD PUSH2 0x1458 DUP2 PUSH2 0x11A2 JUMP JUMPDEST SWAP2 SWAP1 POP JUMP JUMPDEST PUSH0 DUP1 PUSH0 DUP1 PUSH0 DUP1 PUSH0 DUP1 PUSH0 PUSH2 0x120 DUP11 DUP13 SUB SLT ISZERO PUSH2 0x1476 JUMPI PUSH0 DUP1 REVERT JUMPDEST DUP10 MLOAD PUSH2 0x1481 DUP2 PUSH2 0xF03 JUMP JUMPDEST PUSH1 0x20 DUP12 ADD MLOAD SWAP1 SWAP10 POP PUSH2 0x1492 DUP2 PUSH2 0xF03 JUMP JUMPDEST PUSH1 0x40 DUP12 ADD MLOAD PUSH1 0x60 DUP13 ADD MLOAD SWAP2 SWAP10 POP SWAP8 POP PUSH8 0xFFFFFFFFFFFFFFFF DUP1 DUP3 GT ISZERO PUSH2 0x14B6 JUMPI PUSH0 DUP1 REVERT JUMPDEST PUSH2 0x14C2 DUP14 DUP4 DUP15 ADD PUSH2 0x1403 JUMP JUMPDEST SWAP8 POP PUSH2 0x14D0 PUSH1 0x80 DUP14 ADD PUSH2 0x144D JUMP JUMPDEST SWAP7 POP PUSH1 0xA0 DUP13 ADD MLOAD SWAP6 POP PUSH1 0xC0 DUP13 ADD MLOAD SWAP5 POP PUSH1 0xE0 DUP13 ADD MLOAD SWAP4 POP PUSH2 0x100 DUP13 ADD MLOAD SWAP2 POP DUP1 DUP3 GT ISZERO PUSH2 0x14FB JUMPI PUSH0 DUP1 REVERT JUMPDEST POP PUSH2 0x1508 DUP13 DUP3 DUP14 ADD PUSH2 0x1403 JUMP JUMPDEST SWAP2 POP POP SWAP3 SWAP6 SWAP9 POP SWAP3 SWAP6 SWAP9 POP SWAP3 SWAP6 SWAP9 JUMP JUMPDEST PUSH0 PUSH1 0x1 DUP3 ADD PUSH2 0x1529 JUMPI PUSH2 0x1529 PUSH2 0x1347 JUMP JUMPDEST POP PUSH1 0x1 ADD SWAP1 JUMP JUMPDEST PUSH1 0x1F DUP3 GT ISZERO PUSH2 0x1577 JUMPI DUP1 PUSH0 MSTORE PUSH1 0x20 PUSH0 KECCAK256 PUSH1 0x1F DUP5 ADD PUSH1 0x5 SHR DUP2 ADD PUSH1 0x20 DUP6 LT ISZERO PUSH2 0x1555 JUMPI POP DUP1 JUMPDEST PUSH1 0x1F DUP5 ADD PUSH1 0x5 SHR DUP3 ADD SWAP2 POP JUMPDEST DUP2 DUP2 LT ISZERO PUSH2 0x1574 JUMPI PUSH0 DUP2 SSTORE PUSH1 0x1 ADD PUSH2 0x1561 JUMP JUMPDEST POP POP JUMPDEST POP POP POP JUMP JUMPDEST DUP2 MLOAD PUSH8 0xFFFFFFFFFFFFFFFF DUP2 GT ISZERO PUSH2 0x1596 JUMPI PUSH2 0x1596 PUSH2 0x11B0 JUMP JUMPDEST PUSH2 0x15AA DUP2 PUSH2 0x15A4 DUP5 SLOAD PUSH2 0x1395 JUMP JUMPDEST DUP5 PUSH2 0x1530 JUMP JUMPDEST PUSH1 0x20 DUP1 PUSH1 0x1F DUP4 GT PUSH1 0x1 DUP2 EQ PUSH2 0x15DD JUMPI PUSH0 DUP5 ISZERO PUSH2 0x15C6 JUMPI POP DUP6 DUP4 ADD MLOAD JUMPDEST PUSH0 NOT PUSH1 0x3 DUP7 SWAP1 SHL SHR NOT AND PUSH1 0x1 DUP6 SWAP1 SHL OR DUP6 SSTORE PUSH2 0x1634 JUMP JUMPDEST PUSH0 DUP6 DUP2 MSTORE PUSH1 0x20 DUP2 KECCAK256 PUSH1 0x1F NOT DUP7 AND SWAP2 JUMPDEST DUP3 DUP2 LT ISZERO PUSH2 0x160B JUMPI DUP9 DUP7 ADD MLOAD DUP3 SSTORE SWAP5 DUP5 ADD SWAP5 PUSH1 0x1 SWAP1 SWAP2 ADD SWAP1 DUP5 ADD PUSH2 0x15EC JUMP JUMPDEST POP DUP6 DUP3 LT ISZERO PUSH2 0x1628 JUMPI DUP8 DUP6 ADD MLOAD PUSH0 NOT PUSH1 0x3 DUP9 SWAP1 SHL PUSH1 0xF8 AND SHR NOT AND DUP2 SSTORE JUMPDEST POP POP PUSH1 0x1 DUP5 PUSH1 0x1 SHL ADD DUP6 SSTORE JUMPDEST POP POP POP POP POP POP JUMP INVALID LOG2 PUSH5 0x6970667358 0x22 SLT KECCAK256 SWAP13 SLT MLOAD 0xAF DUP7 SWAP9 LOG3 GAS PUSH5 0xF0475FDA38 XOR SWAP6 0xD8 0xD DUP4 PUSH3 0xC076CC SWAP4 0x22 LOG0 PUSH13 0x48166F5C8564736F6C63430008 XOR STOP CALLER "},"methodIdentifiers":{"agentRegistry()":"0d1cfcae","agentReviews(address,uint256)":"8203bc88","getReputation(address)":"9c89a0e2","getReviewCount(address)":"6ec78fc6","getReviews(address,uint256,uint256)":"509209ba","getTrustScore(address)":"5e09eea1","hasReviewForTask(uint256,address)":"315e32a8","hasReviewed(uint256,address)":"7c7198cc","nextReviewId()":"396e77e7","owner()":"8da5cb5b","renounceOwnership()":"715018a6","reputation(address)":"b9f79451","reviews(uint256)":"e83ddcea","setAgentRegistry(address)":"28342ecf","setTaskEscrow(address)":"da875013","submitReview(uint256,uint8,string)":"74a5b693","taskEscrow()":"27c4ffe1","transferOwnership(address)":"f2fde38b","updateStats(address,uint256,uint256,uint256,uint256,uint256)":"18040e78"}}}}}