{
  "_format": "hh-sol-artifact-1",
  "contractName": "MicroPayment",
  "sourceName": "contracts/MicroPayment.sol",
  "abi": [
    {
      "inputs": [
        {
          "internalType": "address",
          "name": "_usdc",
          "type": "address"
        }
      ],
      "stateMutability": "nonpayable",
      "type": "constructor"
    },
    {
      "inputs": [
        {
          "internalType": "address",
          "name": "owner",
          "type": "address"
        }
      ],
      "name": "OwnableInvalidOwner",
      "type": "error"
    },
    {
      "inputs": [
        {
          "internalType": "address",
          "name": "account",
          "type": "address"
        }
      ],
      "name": "OwnableUnauthorizedAccount",
      "type": "error"
    },
    {
      "inputs": [],
      "name": "ReentrancyGuardReentrantCall",
      "type": "error"
    },
    {
      "inputs": [
        {
          "internalType": "address",
          "name": "token",
          "type": "address"
        }
      ],
      "name": "SafeERC20FailedOperation",
      "type": "error"
    },
    {
      "anonymous": false,
      "inputs": [
        {
          "indexed": true,
          "internalType": "address",
          "name": "previousOwner",
          "type": "address"
        },
        {
          "indexed": true,
          "internalType": "address",
          "name": "newOwner",
          "type": "address"
        }
      ],
      "name": "OwnershipTransferred",
      "type": "event"
    },
    {
      "anonymous": false,
      "inputs": [
        {
          "indexed": true,
          "internalType": "uint256",
          "name": "streamId",
          "type": "uint256"
        },
        {
          "indexed": true,
          "internalType": "address",
          "name": "sender",
          "type": "address"
        },
        {
          "indexed": true,
          "internalType": "address",
          "name": "receiver",
          "type": "address"
        },
        {
          "indexed": false,
          "internalType": "uint256",
          "name": "ratePerUnit",
          "type": "uint256"
        },
        {
          "indexed": false,
          "internalType": "uint256",
          "name": "cap",
          "type": "uint256"
        },
        {
          "indexed": false,
          "internalType": "enum MicroPayment.StreamType",
          "name": "streamType",
          "type": "uint8"
        }
      ],
      "name": "StreamCreated",
      "type": "event"
    },
    {
      "anonymous": false,
      "inputs": [
        {
          "indexed": true,
          "internalType": "uint256",
          "name": "streamId",
          "type": "uint256"
        },
        {
          "indexed": false,
          "internalType": "uint256",
          "name": "amount",
          "type": "uint256"
        }
      ],
      "name": "StreamDepositAdded",
      "type": "event"
    },
    {
      "anonymous": false,
      "inputs": [
        {
          "indexed": true,
          "internalType": "uint256",
          "name": "streamId",
          "type": "uint256"
        },
        {
          "indexed": false,
          "internalType": "uint256",
          "name": "refundAmount",
          "type": "uint256"
        }
      ],
      "name": "StreamStopped",
      "type": "event"
    },
    {
      "anonymous": false,
      "inputs": [
        {
          "indexed": true,
          "internalType": "uint256",
          "name": "streamId",
          "type": "uint256"
        },
        {
          "indexed": false,
          "internalType": "uint256",
          "name": "unitsConsumed",
          "type": "uint256"
        }
      ],
      "name": "StreamUnitRecorded",
      "type": "event"
    },
    {
      "anonymous": false,
      "inputs": [
        {
          "indexed": true,
          "internalType": "uint256",
          "name": "streamId",
          "type": "uint256"
        },
        {
          "indexed": true,
          "internalType": "address",
          "name": "receiver",
          "type": "address"
        },
        {
          "indexed": false,
          "internalType": "uint256",
          "name": "amount",
          "type": "uint256"
        }
      ],
      "name": "StreamWithdrawal",
      "type": "event"
    },
    {
      "inputs": [
        {
          "internalType": "address",
          "name": "receiver",
          "type": "address"
        },
        {
          "internalType": "uint256",
          "name": "ratePerUnit",
          "type": "uint256"
        },
        {
          "internalType": "uint256",
          "name": "cap",
          "type": "uint256"
        },
        {
          "internalType": "enum MicroPayment.StreamType",
          "name": "streamType",
          "type": "uint8"
        }
      ],
      "name": "createStream",
      "outputs": [
        {
          "internalType": "uint256",
          "name": "",
          "type": "uint256"
        }
      ],
      "stateMutability": "nonpayable",
      "type": "function"
    },
    {
      "inputs": [
        {
          "internalType": "uint256",
          "name": "streamId",
          "type": "uint256"
        },
        {
          "internalType": "uint256",
          "name": "amount",
          "type": "uint256"
        }
      ],
      "name": "depositToStream",
      "outputs": [],
      "stateMutability": "nonpayable",
      "type": "function"
    },
    {
      "inputs": [
        {
          "internalType": "uint256",
          "name": "streamId",
          "type": "uint256"
        }
      ],
      "name": "getAccumulated",
      "outputs": [
        {
          "internalType": "uint256",
          "name": "",
          "type": "uint256"
        }
      ],
      "stateMutability": "view",
      "type": "function"
    },
    {
      "inputs": [
        {
          "internalType": "address",
          "name": "receiver",
          "type": "address"
        }
      ],
      "name": "getReceiverStreams",
      "outputs": [
        {
          "internalType": "uint256[]",
          "name": "",
          "type": "uint256[]"
        }
      ],
      "stateMutability": "view",
      "type": "function"
    },
    {
      "inputs": [
        {
          "internalType": "address",
          "name": "sender",
          "type": "address"
        }
      ],
      "name": "getSenderStreams",
      "outputs": [
        {
          "internalType": "uint256[]",
          "name": "",
          "type": "uint256[]"
        }
      ],
      "stateMutability": "view",
      "type": "function"
    },
    {
      "inputs": [
        {
          "internalType": "uint256",
          "name": "streamId",
          "type": "uint256"
        }
      ],
      "name": "getStream",
      "outputs": [
        {
          "internalType": "address",
          "name": "sender",
          "type": "address"
        },
        {
          "internalType": "address",
          "name": "receiver",
          "type": "address"
        },
        {
          "internalType": "uint256",
          "name": "ratePerUnit",
          "type": "uint256"
        },
        {
          "internalType": "uint256",
          "name": "cap",
          "type": "uint256"
        },
        {
          "internalType": "uint256",
          "name": "totalDeposited",
          "type": "uint256"
        },
        {
          "internalType": "uint256",
          "name": "totalWithdrawn",
          "type": "uint256"
        },
        {
          "internalType": "uint256",
          "name": "unitsConsumed",
          "type": "uint256"
        },
        {
          "internalType": "bool",
          "name": "isActive",
          "type": "bool"
        },
        {
          "internalType": "enum MicroPayment.StreamType",
          "name": "streamType",
          "type": "uint8"
        }
      ],
      "stateMutability": "view",
      "type": "function"
    },
    {
      "inputs": [
        {
          "internalType": "uint256",
          "name": "streamId",
          "type": "uint256"
        }
      ],
      "name": "getStreamBalance",
      "outputs": [
        {
          "internalType": "uint256",
          "name": "",
          "type": "uint256"
        }
      ],
      "stateMutability": "view",
      "type": "function"
    },
    {
      "inputs": [],
      "name": "getStreamCount",
      "outputs": [
        {
          "internalType": "uint256",
          "name": "",
          "type": "uint256"
        }
      ],
      "stateMutability": "view",
      "type": "function"
    },
    {
      "inputs": [],
      "name": "nextStreamId",
      "outputs": [
        {
          "internalType": "uint256",
          "name": "",
          "type": "uint256"
        }
      ],
      "stateMutability": "view",
      "type": "function"
    },
    {
      "inputs": [],
      "name": "owner",
      "outputs": [
        {
          "internalType": "address",
          "name": "",
          "type": "address"
        }
      ],
      "stateMutability": "view",
      "type": "function"
    },
    {
      "inputs": [],
      "name": "platformFeePercent",
      "outputs": [
        {
          "internalType": "uint256",
          "name": "",
          "type": "uint256"
        }
      ],
      "stateMutability": "view",
      "type": "function"
    },
    {
      "inputs": [
        {
          "internalType": "address",
          "name": "",
          "type": "address"
        },
        {
          "internalType": "uint256",
          "name": "",
          "type": "uint256"
        }
      ],
      "name": "receiverStreams",
      "outputs": [
        {
          "internalType": "uint256",
          "name": "",
          "type": "uint256"
        }
      ],
      "stateMutability": "view",
      "type": "function"
    },
    {
      "inputs": [
        {
          "internalType": "uint256",
          "name": "streamId",
          "type": "uint256"
        }
      ],
      "name": "recordUnit",
      "outputs": [],
      "stateMutability": "nonpayable",
      "type": "function"
    },
    {
      "inputs": [
        {
          "internalType": "uint256",
          "name": "streamId",
          "type": "uint256"
        },
        {
          "internalType": "uint256",
          "name": "units",
          "type": "uint256"
        }
      ],
      "name": "recordUnits",
      "outputs": [],
      "stateMutability": "nonpayable",
      "type": "function"
    },
    {
      "inputs": [],
      "name": "renounceOwnership",
      "outputs": [],
      "stateMutability": "nonpayable",
      "type": "function"
    },
    {
      "inputs": [
        {
          "internalType": "address",
          "name": "",
          "type": "address"
        },
        {
          "internalType": "uint256",
          "name": "",
          "type": "uint256"
        }
      ],
      "name": "senderStreams",
      "outputs": [
        {
          "internalType": "uint256",
          "name": "",
          "type": "uint256"
        }
      ],
      "stateMutability": "view",
      "type": "function"
    },
    {
      "inputs": [
        {
          "internalType": "uint256",
          "name": "_feePercent",
          "type": "uint256"
        }
      ],
      "name": "setPlatformFee",
      "outputs": [],
      "stateMutability": "nonpayable",
      "type": "function"
    },
    {
      "inputs": [
        {
          "internalType": "uint256",
          "name": "streamId",
          "type": "uint256"
        }
      ],
      "name": "stopStream",
      "outputs": [],
      "stateMutability": "nonpayable",
      "type": "function"
    },
    {
      "inputs": [
        {
          "internalType": "uint256",
          "name": "",
          "type": "uint256"
        }
      ],
      "name": "streams",
      "outputs": [
        {
          "internalType": "uint256",
          "name": "id",
          "type": "uint256"
        },
        {
          "internalType": "address",
          "name": "sender",
          "type": "address"
        },
        {
          "internalType": "address",
          "name": "receiver",
          "type": "address"
        },
        {
          "internalType": "uint256",
          "name": "ratePerUnit",
          "type": "uint256"
        },
        {
          "internalType": "uint256",
          "name": "cap",
          "type": "uint256"
        },
        {
          "internalType": "uint256",
          "name": "totalDeposited",
          "type": "uint256"
        },
        {
          "internalType": "uint256",
          "name": "totalWithdrawn",
          "type": "uint256"
        },
        {
          "internalType": "uint256",
          "name": "unitsConsumed",
          "type": "uint256"
        },
        {
          "internalType": "uint256",
          "name": "createdAt",
          "type": "uint256"
        },
        {
          "internalType": "uint256",
          "name": "lastWithdrawAt",
          "type": "uint256"
        },
        {
          "internalType": "bool",
          "name": "isActive",
          "type": "bool"
        },
        {
          "internalType": "enum MicroPayment.StreamType",
          "name": "streamType",
          "type": "uint8"
        }
      ],
      "stateMutability": "view",
      "type": "function"
    },
    {
      "inputs": [
        {
          "internalType": "address",
          "name": "newOwner",
          "type": "address"
        }
      ],
      "name": "transferOwnership",
      "outputs": [],
      "stateMutability": "nonpayable",
      "type": "function"
    },
    {
      "inputs": [],
      "name": "usdc",
      "outputs": [
        {
          "internalType": "contract IERC20",
          "name": "",
          "type": "address"
        }
      ],
      "stateMutability": "view",
      "type": "function"
    },
    {
      "inputs": [
        {
          "internalType": "uint256",
          "name": "streamId",
          "type": "uint256"
        }
      ],
      "name": "withdrawFromStream",
      "outputs": [],
      "stateMutability": "nonpayable",
      "type": "function"
    }
  ],
  "bytecode": "0x6080604052600160025560fa600355348015610019575f80fd5b5060405161166f38038061166f833981016040819052610038916100ff565b338061005d57604051631e4fbdf760e01b81525f600482015260240160405180910390fd5b610066816100b0565b5060017f9b779b17422d0df92223018b32b4d1fa46e071723d6817e2486d003becc55f0055600180546001600160a01b0319166001600160a01b039290921691909117905561012c565b5f80546001600160a01b038381166001600160a01b0319831681178455604051919092169283917f8be0079c531659141344cd1fd0a4f28419497f9722a3daafe3b4186f6b6457e09190a35050565b5f6020828403121561010f575f80fd5b81516001600160a01b0381168114610125575f80fd5b9392505050565b611536806101395f395ff3fe608060405234801561000f575f80fd5b506004361061013d575f3560e01c806385d5089e116100b45780639467487e116100795780639467487e14610370578063c019f4fc14610383578063c0f22084146103a3578063d2a36f8b146103ab578063eca6f506146103be578063f2fde38b146103d1575f80fd5b806385d5089e146102ae578063894e9a0d146102c15780638c639a85146103445780638da5cb5b1461034d57806391f6cc071461035d575f80fd5b80633a55355b116101055780633a55355b146101ab5780633a597f48146101be5780633e413bee146101d157806364d60d91146101fc578063696714b014610293578063715018a6146102a6575f80fd5b806308eeff2d1461014157806312e8e2c3146101565780631e99d569146101695780632019de281461018557806321aace5c14610198575b5f80fd5b61015461014f3660046111e5565b6103e4565b005b610154610164366004611205565b610566565b61017260025481565b6040519081526020015b60405180910390f35b610172610193366004611237565b6105af565b6101546101a63660046111e5565b6105da565b6101726101b9366004611205565b61071a565b6101546101cc366004611205565b610742565b6001546101e4906001600160a01b031681565b6040516001600160a01b03909116815260200161017c565b61027b61020a366004611205565b600460208190525f918252604090912080546001820154600283015460038401549484015460058501546006860154600787015460088801546009890154600a9099015497996001600160a01b03978816999690971697949593949293919290919060ff808216916101009004168c565b60405161017c9c9b9a99989796959493929190611293565b6101726102a136600461130d565b610942565b610154610b82565b6101546102bc366004611205565b610b95565b61032f6102cf366004611205565b5f90815260046020819052604090912060018101546002820154600383015493830154600584015460068501546007860154600a909601546001600160a01b03958616989590941696959294919390929160ff8083169261010090041690565b60405161017c99989796959493929190611355565b61017260035481565b5f546001600160a01b03166101e4565b61015461036b366004611205565b610d4a565b61017261037e366004611205565b610e7a565b6103966103913660046113b5565b610ea3565b60405161017c91906113ce565b610172610f0c565b6103966103b93660046113b5565b610f21565b6101726103cc366004611237565b610f88565b6101546103df3660046113b5565b610fa1565b6103ec610fdb565b5f82815260046020526040902060018101546001600160a01b031633146104475760405162461bcd60e51b815260206004820152600a6024820152692737ba1039b2b73232b960b11b60448201526064015b60405180910390fd5b600a81015460ff166104885760405162461bcd60e51b815260206004820152600a6024820152694e6f742061637469766560b01b604482015260640161043e565b5f82116104cc5760405162461bcd60e51b81526020600482015260126024820152710416d6f756e74206d757374206265203e20360741b604482015260640161043e565b6001546104e4906001600160a01b0316333085610ff6565b81816005015f8282546104f79190611425565b9250508190555081816004015f8282546105119190611425565b909155505060405182815283907f78d806f1c9867b526a72950ed80a6cc5f734157765d98f30f4c2affd9f47a2e89060200160405180910390a25061056260015f805160206114e183398151915255565b5050565b61056e611032565b6103e88111156105aa5760405162461bcd60e51b81526020600482015260076024820152664d61782031302560c81b604482015260640161043e565b600355565b6005602052815f5260405f2081815481106105c8575f80fd5b905f5260205f20015f91509150505481565b5f828152600460205260409020600a81015460ff1661062f5760405162461bcd60e51b815260206004820152601160248201527053747265616d206e6f742061637469766560781b604482015260640161043e565b60028101546001600160a01b0316331461065b5760405162461bcd60e51b815260040161043e9061143e565b5f61066584610e7a565b90505f8383600301546106789190611464565b9050808210156106c15760405162461bcd60e51b8152602060048201526014602482015273496e73756666696369656e742062616c616e636560601b604482015260640161043e565b83836007015f8282546106d49190611425565b9091555050600783015460405190815285907fb4ee838136af5938b08cb440cfa042d32fdd2552003fe446d639cd5765a5d9ca9060200160405180910390a25050505050565b5f8181526004602052604081206003810154600782015461073b9190611464565b9392505050565b61074a610fdb565b5f81815260046020526040902060028101546001600160a01b031633146107835760405162461bcd60e51b815260040161043e9061143e565b600a81015460ff16806107a1575061079a8261071a565b8160060154105b6107e35760405162461bcd60e51b81526020600482015260136024820152724e6f7468696e6720746f20776974686472617760681b604482015260640161043e565b5f6107ed8361071a565b90505f826006015482610800919061147b565b90505f81116108475760405162461bcd60e51b81526020600482015260136024820152724e6f7468696e6720746f20776974686472617760681b604482015260640161043e565b80836006015f82825461085a9190611425565b90915550504260098401556003545f90612710906108789084611464565b610882919061148e565b90505f61088f828461147b565b60028601546001549192506108b1916001600160a01b0390811691168361105e565b81156108de576108de6108cb5f546001600160a01b031690565b6001546001600160a01b0316908461105e565b60028501546040518281526001600160a01b039091169087907febd7cb916e9188a7ff5469abc72a7fb183ca4442dc4e2537245f5f760b38b16a9060200160405180910390a3505050505061093f60015f805160206114e183398151915255565b50565b5f61094b610fdb565b6001600160a01b0385166109945760405162461bcd60e51b815260206004820152601060248201526f24b73b30b634b2103932b1b2b4bb32b960811b604482015260640161043e565b5f84116109d65760405162461bcd60e51b815260206004820152601060248201526f052617465206d757374206265203e20360841b604482015260640161043e565b5f8311610a175760405162461bcd60e51b815260206004820152600f60248201526e0436170206d757374206265203e203608c1b604482015260640161043e565b600280545f9182610a27836114ad565b90915550600154909150610a46906001600160a01b0316333087610ff6565b5f81815260046020819052604090912082815560018082018054336001600160a01b0319918216179091556002830180549091166001600160a01b038b161790556003820188905591810186905560058101869055426008820155600a8101805460ff198116841782559192869261ffff1916811790610100908490811115610ad157610ad161125f565b0217905550335f818152600560209081526040808320805460018181018355918552838520018790556001600160a01b038c168085526006845282852080549283018155855292909320909201859055905190919084907fc7f06c3bec4a571bae5060352c1181dfae11440ed6072d21ca7edab11da7272590610b59908b908b908b906114c5565b60405180910390a4509050610b7a60015f805160206114e183398151915255565b949350505050565b610b8a611032565b610b935f611098565b565b610b9d610fdb565b5f81815260046020526040902060018101546001600160a01b03163314610bf35760405162461bcd60e51b815260206004820152600a6024820152692737ba1039b2b73232b960b11b604482015260640161043e565b600a81015460ff16610c345760405162461bcd60e51b815260206004820152600a6024820152694e6f742061637469766560b01b604482015260640161043e565b600a8101805460ff191690555f610c4a8361071a565b90505f826006015482610c5d919061147b565b90508015610cba575f61271060035483610c779190611464565b610c81919061148e565b90505f610c8e828461147b565b6002860154600154919250610cb0916001600160a01b0390811691168361105e565b5050600683018290555b5f83600601548460050154610ccf919061147b565b90508015610cf6576001808501549054610cf6916001600160a01b0391821691168361105e565b847f9020b1871151d7c16668e0fd7b6a007864f892471e1848fece5d5d224b3f7d7482604051610d2891815260200190565b60405180910390a25050505061093f60015f805160206114e183398151915255565b5f818152600460205260409020600a81015460ff16610d9f5760405162461bcd60e51b815260206004820152601160248201527053747265616d206e6f742061637469766560781b604482015260640161043e565b60028101546001600160a01b03163314610dcb5760405162461bcd60e51b815260040161043e9061143e565b5f610dd583610e7a565b90508160030154811015610e225760405162461bcd60e51b8152602060048201526014602482015273496e73756666696369656e742062616c616e636560601b604482015260640161043e565b6001826007015f828254610e369190611425565b9091555050600782015460405190815283907fb4ee838136af5938b08cb440cfa042d32fdd2552003fe446d639cd5765a5d9ca9060200160405180910390a2505050565b5f81815260046020526040812081610e918461071a565b9050808260040154610b7a919061147b565b6001600160a01b0381165f90815260056020908152604091829020805483518184028101840190945280845260609392830182828015610f0057602002820191905f5260205f20905b815481526020019060010190808311610eec575b50505050509050919050565b5f6001600254610f1c919061147b565b905090565b6001600160a01b0381165f90815260066020908152604091829020805483518184028101840190945280845260609392830182828015610f0057602002820191905f5260205f2090815481526020019060010190808311610eec5750505050509050919050565b6006602052815f5260405f2081815481106105c8575f80fd5b610fa9611032565b6001600160a01b038116610fd257604051631e4fbdf760e01b81525f600482015260240161043e565b61093f81611098565b610fe36110e7565b60025f805160206114e183398151915255565b611004848484846001611116565b61102c57604051635274afe760e01b81526001600160a01b038516600482015260240161043e565b50505050565b5f546001600160a01b03163314610b935760405163118cdaa760e01b815233600482015260240161043e565b61106b8383836001611183565b61109357604051635274afe760e01b81526001600160a01b038416600482015260240161043e565b505050565b5f80546001600160a01b038381166001600160a01b0319831681178455604051919092169283917f8be0079c531659141344cd1fd0a4f28419497f9722a3daafe3b4186f6b6457e09190a35050565b5f805160206114e183398151915254600203610b9357604051633ee5aeb560e01b815260040160405180910390fd5b6040516323b872dd60e01b5f8181526001600160a01b038781166004528616602452604485905291602083606481808c5af1925060015f51148316611172578383151615611166573d5f823e3d81fd5b5f883b113d1516831692505b604052505f60605295945050505050565b60405163a9059cbb60e01b5f8181526001600160a01b038616600452602485905291602083604481808b5af1925060015f511483166111d95783831516156111cd573d5f823e3d81fd5b5f873b113d1516831692505b60405250949350505050565b5f80604083850312156111f6575f80fd5b50508035926020909101359150565b5f60208284031215611215575f80fd5b5035919050565b80356001600160a01b0381168114611232575f80fd5b919050565b5f8060408385031215611248575f80fd5b6112518361121c565b946020939093013593505050565b634e487b7160e01b5f52602160045260245ffd5b6002811061128f57634e487b7160e01b5f52602160045260245ffd5b9052565b8c81526001600160a01b038c811660208301528b166040820152606081018a90526080810189905260a0810188905260c0810187905260e081018690526101008101859052610120810184905282151561014082015261018081016112fc610160830184611273565b9d9c50505050505050505050505050565b5f805f8060808587031215611320575f80fd5b6113298561121c565b9350602085013592506040850135915060608501356002811061134a575f80fd5b939692955090935050565b6001600160a01b038a811682528916602082015260408101889052606081018790526080810186905260a0810185905260c0810184905282151560e082015261012081016113a7610100830184611273565b9a9950505050505050505050565b5f602082840312156113c5575f80fd5b61073b8261121c565b602080825282518282018190525f9190848201906040850190845b81811015611405578351835292840192918401916001016113e9565b50909695505050505050565b634e487b7160e01b5f52601160045260245ffd5b8082018082111561143857611438611411565b92915050565b6020808252600c908201526b2737ba103932b1b2b4bb32b960a11b604082015260600190565b808202811582820484141761143857611438611411565b8181038181111561143857611438611411565b5f826114a857634e487b7160e01b5f52601260045260245ffd5b500490565b5f600182016114be576114be611411565b5060010190565b8381526020810183905260608101610b7a604083018461127356fe9b779b17422d0df92223018b32b4d1fa46e071723d6817e2486d003becc55f00a26469706673582212200b3feb8d844c32d416989d23c0ff237aeae9f0772f45fa7502c67166939690da64736f6c63430008180033",
  "linkReferences": {},
  "deployedLinkReferences": {}
}