{
  "_format": "hh-sol-artifact-1",
  "contractName": "AgentRegistry",
  "sourceName": "contracts/AgentRegistry.sol",
  "abi": [
    {
      "inputs": [],
      "stateMutability": "nonpayable",
      "type": "constructor"
    },
    {
      "inputs": [
        {
          "internalType": "address",
          "name": "owner",
          "type": "address"
        }
      ],
      "name": "OwnableInvalidOwner",
      "type": "error"
    },
    {
      "inputs": [
        {
          "internalType": "address",
          "name": "account",
          "type": "address"
        }
      ],
      "name": "OwnableUnauthorizedAccount",
      "type": "error"
    },
    {
      "anonymous": false,
      "inputs": [
        {
          "indexed": true,
          "internalType": "address",
          "name": "wallet",
          "type": "address"
        }
      ],
      "name": "AgentDeactivated",
      "type": "event"
    },
    {
      "anonymous": false,
      "inputs": [
        {
          "indexed": true,
          "internalType": "address",
          "name": "wallet",
          "type": "address"
        },
        {
          "indexed": false,
          "internalType": "uint256",
          "name": "newRating",
          "type": "uint256"
        },
        {
          "indexed": false,
          "internalType": "uint256",
          "name": "ratingCount",
          "type": "uint256"
        }
      ],
      "name": "AgentRatingUpdated",
      "type": "event"
    },
    {
      "anonymous": false,
      "inputs": [
        {
          "indexed": true,
          "internalType": "address",
          "name": "wallet",
          "type": "address"
        }
      ],
      "name": "AgentReactivated",
      "type": "event"
    },
    {
      "anonymous": false,
      "inputs": [
        {
          "indexed": true,
          "internalType": "address",
          "name": "wallet",
          "type": "address"
        },
        {
          "indexed": false,
          "internalType": "string",
          "name": "name",
          "type": "string"
        },
        {
          "indexed": false,
          "internalType": "string[]",
          "name": "skills",
          "type": "string[]"
        }
      ],
      "name": "AgentRegistered",
      "type": "event"
    },
    {
      "anonymous": false,
      "inputs": [
        {
          "indexed": true,
          "internalType": "address",
          "name": "wallet",
          "type": "address"
        },
        {
          "indexed": false,
          "internalType": "string[]",
          "name": "skills",
          "type": "string[]"
        },
        {
          "indexed": false,
          "internalType": "uint256",
          "name": "ratePerTask",
          "type": "uint256"
        },
        {
          "indexed": false,
          "internalType": "uint256",
          "name": "ratePerCall",
          "type": "uint256"
        }
      ],
      "name": "AgentUpdated",
      "type": "event"
    },
    {
      "anonymous": false,
      "inputs": [
        {
          "indexed": true,
          "internalType": "address",
          "name": "previousOwner",
          "type": "address"
        },
        {
          "indexed": true,
          "internalType": "address",
          "name": "newOwner",
          "type": "address"
        }
      ],
      "name": "OwnershipTransferred",
      "type": "event"
    },
    {
      "inputs": [
        {
          "internalType": "uint256",
          "name": "",
          "type": "uint256"
        }
      ],
      "name": "agentList",
      "outputs": [
        {
          "internalType": "address",
          "name": "",
          "type": "address"
        }
      ],
      "stateMutability": "view",
      "type": "function"
    },
    {
      "inputs": [
        {
          "internalType": "address",
          "name": "",
          "type": "address"
        }
      ],
      "name": "agents",
      "outputs": [
        {
          "internalType": "address",
          "name": "wallet",
          "type": "address"
        },
        {
          "internalType": "string",
          "name": "name",
          "type": "string"
        },
        {
          "internalType": "string",
          "name": "description",
          "type": "string"
        },
        {
          "internalType": "uint256",
          "name": "ratePerTask",
          "type": "uint256"
        },
        {
          "internalType": "uint256",
          "name": "ratePerCall",
          "type": "uint256"
        },
        {
          "internalType": "uint256",
          "name": "completedTasks",
          "type": "uint256"
        },
        {
          "internalType": "uint256",
          "name": "totalEarnings",
          "type": "uint256"
        },
        {
          "internalType": "uint256",
          "name": "ratingSum",
          "type": "uint256"
        },
        {
          "internalType": "uint256",
          "name": "ratingCount",
          "type": "uint256"
        },
        {
          "internalType": "uint256",
          "name": "registeredAt",
          "type": "uint256"
        },
        {
          "internalType": "bool",
          "name": "isActive",
          "type": "bool"
        },
        {
          "internalType": "string",
          "name": "metadataURI",
          "type": "string"
        }
      ],
      "stateMutability": "view",
      "type": "function"
    },
    {
      "inputs": [],
      "name": "deactivateAgent",
      "outputs": [],
      "stateMutability": "nonpayable",
      "type": "function"
    },
    {
      "inputs": [
        {
          "internalType": "address",
          "name": "wallet",
          "type": "address"
        }
      ],
      "name": "getAgent",
      "outputs": [
        {
          "internalType": "string",
          "name": "name",
          "type": "string"
        },
        {
          "internalType": "string",
          "name": "description",
          "type": "string"
        },
        {
          "internalType": "string[]",
          "name": "skills",
          "type": "string[]"
        },
        {
          "internalType": "uint256",
          "name": "ratePerTask",
          "type": "uint256"
        },
        {
          "internalType": "uint256",
          "name": "ratePerCall",
          "type": "uint256"
        },
        {
          "internalType": "uint256",
          "name": "completedTasks",
          "type": "uint256"
        },
        {
          "internalType": "uint256",
          "name": "totalEarnings",
          "type": "uint256"
        },
        {
          "internalType": "uint256",
          "name": "averageRating",
          "type": "uint256"
        },
        {
          "internalType": "uint256",
          "name": "ratingCount",
          "type": "uint256"
        },
        {
          "internalType": "bool",
          "name": "isActive",
          "type": "bool"
        },
        {
          "internalType": "string",
          "name": "metadataURI",
          "type": "string"
        }
      ],
      "stateMutability": "view",
      "type": "function"
    },
    {
      "inputs": [
        {
          "internalType": "uint256",
          "name": "index",
          "type": "uint256"
        }
      ],
      "name": "getAgentByIndex",
      "outputs": [
        {
          "internalType": "address",
          "name": "",
          "type": "address"
        }
      ],
      "stateMutability": "view",
      "type": "function"
    },
    {
      "inputs": [],
      "name": "getAgentCount",
      "outputs": [
        {
          "internalType": "uint256",
          "name": "",
          "type": "uint256"
        }
      ],
      "stateMutability": "view",
      "type": "function"
    },
    {
      "inputs": [
        {
          "internalType": "string",
          "name": "skill",
          "type": "string"
        }
      ],
      "name": "getAgentsBySkill",
      "outputs": [
        {
          "internalType": "address[]",
          "name": "",
          "type": "address[]"
        }
      ],
      "stateMutability": "view",
      "type": "function"
    },
    {
      "inputs": [
        {
          "internalType": "address",
          "name": "wallet",
          "type": "address"
        }
      ],
      "name": "getAverageRating",
      "outputs": [
        {
          "internalType": "uint256",
          "name": "",
          "type": "uint256"
        }
      ],
      "stateMutability": "view",
      "type": "function"
    },
    {
      "inputs": [
        {
          "internalType": "address",
          "name": "wallet",
          "type": "address"
        }
      ],
      "name": "isActive",
      "outputs": [
        {
          "internalType": "bool",
          "name": "",
          "type": "bool"
        }
      ],
      "stateMutability": "view",
      "type": "function"
    },
    {
      "inputs": [
        {
          "internalType": "address",
          "name": "wallet",
          "type": "address"
        }
      ],
      "name": "isRegistered",
      "outputs": [
        {
          "internalType": "bool",
          "name": "",
          "type": "bool"
        }
      ],
      "stateMutability": "view",
      "type": "function"
    },
    {
      "inputs": [],
      "name": "owner",
      "outputs": [
        {
          "internalType": "address",
          "name": "",
          "type": "address"
        }
      ],
      "stateMutability": "view",
      "type": "function"
    },
    {
      "inputs": [],
      "name": "reactivateAgent",
      "outputs": [],
      "stateMutability": "nonpayable",
      "type": "function"
    },
    {
      "inputs": [
        {
          "internalType": "address",
          "name": "agent",
          "type": "address"
        },
        {
          "internalType": "uint256",
          "name": "earnings",
          "type": "uint256"
        }
      ],
      "name": "recordTaskCompletion",
      "outputs": [],
      "stateMutability": "nonpayable",
      "type": "function"
    },
    {
      "inputs": [
        {
          "internalType": "string",
          "name": "name",
          "type": "string"
        },
        {
          "internalType": "string",
          "name": "description",
          "type": "string"
        },
        {
          "internalType": "string[]",
          "name": "skills",
          "type": "string[]"
        },
        {
          "internalType": "uint256",
          "name": "ratePerTask",
          "type": "uint256"
        },
        {
          "internalType": "uint256",
          "name": "ratePerCall",
          "type": "uint256"
        },
        {
          "internalType": "string",
          "name": "metadataURI",
          "type": "string"
        }
      ],
      "name": "registerAgent",
      "outputs": [],
      "stateMutability": "nonpayable",
      "type": "function"
    },
    {
      "inputs": [],
      "name": "renounceOwnership",
      "outputs": [],
      "stateMutability": "nonpayable",
      "type": "function"
    },
    {
      "inputs": [
        {
          "internalType": "string",
          "name": "",
          "type": "string"
        },
        {
          "internalType": "uint256",
          "name": "",
          "type": "uint256"
        }
      ],
      "name": "skillIndex",
      "outputs": [
        {
          "internalType": "address",
          "name": "",
          "type": "address"
        }
      ],
      "stateMutability": "view",
      "type": "function"
    },
    {
      "inputs": [
        {
          "internalType": "address",
          "name": "newOwner",
          "type": "address"
        }
      ],
      "name": "transferOwnership",
      "outputs": [],
      "stateMutability": "nonpayable",
      "type": "function"
    },
    {
      "inputs": [
        {
          "internalType": "string[]",
          "name": "skills",
          "type": "string[]"
        },
        {
          "internalType": "uint256",
          "name": "ratePerTask",
          "type": "uint256"
        },
        {
          "internalType": "uint256",
          "name": "ratePerCall",
          "type": "uint256"
        },
        {
          "internalType": "string",
          "name": "metadataURI",
          "type": "string"
        }
      ],
      "name": "updateAgent",
      "outputs": [],
      "stateMutability": "nonpayable",
      "type": "function"
    },
    {
      "inputs": [
        {
          "internalType": "string",
          "name": "name",
          "type": "string"
        },
        {
          "internalType": "string",
          "name": "description",
          "type": "string"
        }
      ],
      "name": "updateProfile",
      "outputs": [],
      "stateMutability": "nonpayable",
      "type": "function"
    },
    {
      "inputs": [
        {
          "internalType": "address",
          "name": "agent",
          "type": "address"
        },
        {
          "internalType": "uint256",
          "name": "rating",
          "type": "uint256"
        }
      ],
      "name": "updateRating",
      "outputs": [],
      "stateMutability": "nonpayable",
      "type": "function"
    }
  ],
  "bytecode": "0x608060405234801561000f575f80fd5b50338061003557604051631e4fbdf760e01b81525f600482015260240160405180910390fd5b61003e81610044565b50610093565b5f80546001600160a01b038381166001600160a01b0319831681178455604051919092169283917f8be0079c531659141344cd1fd0a4f28419497f9722a3daafe3b4186f6b6457e09190a35050565b611a62806100a05f395ff3fe608060405234801561000f575f80fd5b5060043610610127575f3560e01c8063c1599e4d116100a9578063d91b6b7d1161006e578063d91b6b7d14610287578063f2fde38b146102a7578063f98c828f146102ba578063fb3551ff146102cd578063fd66091e146102f7575f80fd5b8063c1599e4d14610219578063c3c5a54714610221578063c8b675221461024e578063c9d3cc6a14610261578063ce9e10c214610274575f80fd5b80638ea3f8b3116100ef5780638ea3f8b31461019b57806391cab63e146101ae5780639a4fbf5b146101c05780639f8a13d7146101c8578063ad80af2914610206575f80fd5b80632f80c54f1461012b5780634e63f9b11461015b578063715018a61461017057806389432d40146101785780638da5cb5b1461018b575b5f80fd5b61013e61013936600461121e565b610322565b6040516001600160a01b0390911681526020015b60405180910390f35b61016e610169366004611250565b61034a565b005b61016e610457565b61013e61018636600461121e565b61046a565b5f546001600160a01b031661013e565b61016e6101a93660046113c3565b610498565b6002545b604051908152602001610152565b61016e610702565b6101f66101d636600461147a565b6001600160a01b03165f908152600160205260409020600b015460ff1690565b6040519015158152602001610152565b61016e610214366004611493565b6107cb565b61016e61088f565b6101f661022f36600461147a565b6001600160a01b039081165f9081526001602052604090205416151590565b6101b261025c36600461147a565b61095d565b61016e61026f366004611505565b6109a2565b61013e610282366004611565565b610a13565b61029a6102953660046115a7565b610a58565b60405161015291906115e1565b61016e6102b536600461147a565b610ad0565b61016e6102c8366004611250565b610b0d565b6102e06102db36600461147a565b610bcb565b6040516101529b9a999897969594939291906116d2565b61030a61030536600461147a565b610eec565b6040516101529c9b9a99989796959493929190611762565b60028181548110610331575f80fd5b5f918252602090912001546001600160a01b0316905081565b5f546001600160a01b031633146103a85760405162461bcd60e51b815260206004820152601860248201527f4f6e6c792072657075746174696f6e20636f6e7472616374000000000000000060448201526064015b60405180910390fd5b6001600160a01b0382165f908152600160205260408120600881018054919284926103d49084906117f7565b925050819055506001816009015f8282546103ef91906117f7565b92505081905550826001600160a01b03167fe39d60ebdfa88388299babef2ef2d875a9a0c9f38239ebffb535f7505ab6514082600901548360080154610435919061181c565b60098401546040805192835260208301919091520160405180910390a2505050565b61045f6110ed565b6104685f611119565b565b5f6002828154811061047e5761047e61183b565b5f918252602090912001546001600160a01b031692915050565b335f908152600160205260409020546001600160a01b0316156104f25760405162461bcd60e51b8152602060048201526012602482015271105b1c9958591e481c9959da5cdd195c995960721b604482015260640161039f565b5f8651116105325760405162461bcd60e51b815260206004820152600d60248201526c13985b59481c995c5d5a5c9959609a1b604482015260640161039f565b5f8451116105825760405162461bcd60e51b815260206004820152601b60248201527f4174206c65617374206f6e6520736b696c6c2072657175697265640000000000604482015260640161039f565b335f81815260016020819052604090912080546001600160a01b031916909217825581016105b088826118d2565b50600281016105bf87826118d2565b5084516105d59060038301906020880190611168565b50600481018490556005810183905542600a820155600b8101805460ff19166001179055600c810161060783826118d2565b50600280546001810182555f9182527f405787fa12a823e0f2b7631cc41b3ba8828b3321ca811111fa75cd3aa3bb5ace0180546001600160a01b031916331790555b85518110156106b55760038682815181106106665761066661183b565b602002602001015160405161067b9190611992565b9081526040519081900360209081019091208054600181810183555f928352929091200180546001600160a01b0319163317905501610649565b50336001600160a01b03167fcf566b9feaf421c1c6768eee5bcd85d968c5ec9b78a6e1db58d90005717b61bc88876040516106f19291906119ad565b60405180910390a250505050505050565b335f908152600160205260409020546001600160a01b03166107365760405162461bcd60e51b815260040161039f906119da565b335f908152600160205260409020600b015460ff1661078a5760405162461bcd60e51b815260206004820152601060248201526f4167656e74206e6f742061637469766560801b604482015260640161039f565b335f81815260016020526040808220600b01805460ff19169055517fa58c733780f5c1527d6106ff1e731cbf2e9ffc0eb11ad399ca33ea55f057ddf49190a2565b335f908152600160205260409020546001600160a01b03166107ff5760405162461bcd60e51b815260040161039f906119da565b335f90815260016020908152604090912085519091610825916003840191880190611168565b506004810184905560058101839055600c810161084283826118d2565b50336001600160a01b03167ffa8e2ac4e140ba7f2098fd25c9889ebdffd2925d6c7fa632ee021865e19ee5aa86868660405161088093929190611a08565b60405180910390a25050505050565b335f908152600160205260409020546001600160a01b03166108c35760405162461bcd60e51b815260040161039f906119da565b335f908152600160205260409020600b015460ff16156109165760405162461bcd60e51b815260206004820152600e60248201526d416c72656164792061637469766560901b604482015260640161039f565b335f818152600160208190526040808320600b01805460ff1916909217909155517f4272097f7cd14b10d38a34d4aecc7896a7dcc5c35ffa96932ff1b1617e7bebe79190a2565b6001600160a01b0381165f9081526001602052604081206009810154820361098757505f92915050565b8060090154816008015461099b919061181c565b9392505050565b335f908152600160205260409020546001600160a01b03166109d65760405162461bcd60e51b815260040161039f906119da565b335f908152600160208190526040909120016109f283826118d2565b50335f908152600160205260409020600201610a0e82826118d2565b505050565b81516020818401810180516003825292820191850191909120919052805482908110610a3d575f80fd5b5f918252602090912001546001600160a01b03169150829050565b6060600382604051610a6a9190611992565b9081526040805191829003602090810183208054808302850183019093528284529190830182828015610ac457602002820191905f5260205f20905b81546001600160a01b03168152600190910190602001808311610aa6575b50505050509050919050565b610ad86110ed565b6001600160a01b038116610b0157604051631e4fbdf760e01b81525f600482015260240161039f565b610b0a81611119565b50565b5f546001600160a01b03163314610b665760405162461bcd60e51b815260206004820152601960248201527f4f6e6c79207461736b20657363726f7720636f6e747261637400000000000000604482015260640161039f565b6001600160a01b0382165f9081526001602081905260408220600601805491929091610b939084906117f7565b90915550506001600160a01b0382165f9081526001602052604081206007018054839290610bc29084906117f7565b90915550505050565b60608060605f805f805f805f60605f60015f8e6001600160a01b03166001600160a01b031681526020019081526020015f20905080600101816002018260030183600401548460050154856006015486600701545f886009015411610c30575f610c44565b87600901548860080154610c44919061181c565b6009890154600b8a0154895460ff90911690600c8c01908b90610c669061184f565b80601f0160208091040260200160405190810160405280929190818152602001828054610c929061184f565b8015610cdd5780601f10610cb457610100808354040283529160200191610cdd565b820191905f5260205f20905b815481529060010190602001808311610cc057829003601f168201915b50505050509a50898054610cf09061184f565b80601f0160208091040260200160405190810160405280929190818152602001828054610d1c9061184f565b8015610d675780601f10610d3e57610100808354040283529160200191610d67565b820191905f5260205f20905b815481529060010190602001808311610d4a57829003601f168201915b5050505050995088805480602002602001604051908101604052809291908181526020015f905b82821015610e36578382905f5260205f20018054610dab9061184f565b80601f0160208091040260200160405190810160405280929190818152602001828054610dd79061184f565b8015610e225780601f10610df957610100808354040283529160200191610e22565b820191905f5260205f20905b815481529060010190602001808311610e0557829003601f168201915b505050505081526020019060010190610d8e565b505050509850808054610e489061184f565b80601f0160208091040260200160405190810160405280929190818152602001828054610e749061184f565b8015610ebf5780601f10610e9657610100808354040283529160200191610ebf565b820191905f5260205f20905b815481529060010190602001808311610ea257829003601f168201915b505050505090509b509b509b509b509b509b509b509b509b509b509b505091939597999b90929496989a50565b600160208190525f9182526040909120805491810180546001600160a01b0390931692610f189061184f565b80601f0160208091040260200160405190810160405280929190818152602001828054610f449061184f565b8015610f8f5780601f10610f6657610100808354040283529160200191610f8f565b820191905f5260205f20905b815481529060010190602001808311610f7257829003601f168201915b505050505090806002018054610fa49061184f565b80601f0160208091040260200160405190810160405280929190818152602001828054610fd09061184f565b801561101b5780601f10610ff25761010080835404028352916020019161101b565b820191905f5260205f20905b815481529060010190602001808311610ffe57829003601f168201915b50505050509080600401549080600501549080600601549080600701549080600801549080600901549080600a01549080600b015f9054906101000a900460ff169080600c01805461106c9061184f565b80601f01602080910402602001604051908101604052809291908181526020018280546110989061184f565b80156110e35780601f106110ba576101008083540402835291602001916110e3565b820191905f5260205f20905b8154815290600101906020018083116110c657829003601f168201915b505050505090508c565b5f546001600160a01b031633146104685760405163118cdaa760e01b815233600482015260240161039f565b5f80546001600160a01b038381166001600160a01b0319831681178455604051919092169283917f8be0079c531659141344cd1fd0a4f28419497f9722a3daafe3b4186f6b6457e09190a35050565b828054828255905f5260205f209081019282156111ac579160200282015b828111156111ac578251829061119c90826118d2565b5091602001919060010190611186565b506111b89291506111bc565b5090565b808211156111b8575f6111cf82826111d8565b506001016111bc565b5080546111e49061184f565b5f825580601f106111f3575050565b601f0160209004905f5260205f2090810190610b0a91905b808211156111b8575f815560010161120b565b5f6020828403121561122e575f80fd5b5035919050565b80356001600160a01b038116811461124b575f80fd5b919050565b5f8060408385031215611261575f80fd5b61126a83611235565b946020939093013593505050565b634e487b7160e01b5f52604160045260245ffd5b604051601f8201601f1916810167ffffffffffffffff811182821017156112b5576112b5611278565b604052919050565b5f82601f8301126112cc575f80fd5b813567ffffffffffffffff8111156112e6576112e6611278565b6112f9601f8201601f191660200161128c565b81815284602083860101111561130d575f80fd5b816020850160208301375f918101602001919091529392505050565b5f82601f830112611338575f80fd5b8135602067ffffffffffffffff8083111561135557611355611278565b8260051b61136483820161128c565b938452858101830193838101908886111561137d575f80fd5b84880192505b858310156113b757823584811115611399575f80fd5b6113a78a87838c01016112bd565b8352509184019190840190611383565b98975050505050505050565b5f805f805f8060c087890312156113d8575f80fd5b863567ffffffffffffffff808211156113ef575f80fd5b6113fb8a838b016112bd565b97506020890135915080821115611410575f80fd5b61141c8a838b016112bd565b96506040890135915080821115611431575f80fd5b61143d8a838b01611329565b9550606089013594506080890135935060a0890135915080821115611460575f80fd5b5061146d89828a016112bd565b9150509295509295509295565b5f6020828403121561148a575f80fd5b61099b82611235565b5f805f80608085870312156114a6575f80fd5b843567ffffffffffffffff808211156114bd575f80fd5b6114c988838901611329565b9550602087013594506040870135935060608701359150808211156114ec575f80fd5b506114f9878288016112bd565b91505092959194509250565b5f8060408385031215611516575f80fd5b823567ffffffffffffffff8082111561152d575f80fd5b611539868387016112bd565b9350602085013591508082111561154e575f80fd5b5061155b858286016112bd565b9150509250929050565b5f8060408385031215611576575f80fd5b823567ffffffffffffffff81111561158c575f80fd5b611598858286016112bd565b95602094909401359450505050565b5f602082840312156115b7575f80fd5b813567ffffffffffffffff8111156115cd575f80fd5b6115d9848285016112bd565b949350505050565b602080825282518282018190525f9190848201906040850190845b818110156116215783516001600160a01b0316835292840192918401916001016115fc565b50909695505050505050565b5f5b8381101561164757818101518382015260200161162f565b50505f910152565b5f815180845261166681602086016020860161162d565b601f01601f19169290920160200192915050565b5f8282518085526020808601955060208260051b840101602086015f5b848110156116c557601f198684030189526116b383835161164f565b98840198925090830190600101611697565b5090979650505050505050565b5f6101608083526116e58184018f61164f565b905082810360208401526116f9818e61164f565b9050828103604084015261170d818d61167a565b90508a60608401528960808401528860a08401528760c08401528660e084015285610100840152841515610120840152828103610140840152611750818561164f565b9e9d5050505050505050505050505050565b6001600160a01b038d168152610180602082018190525f906117868382018f61164f565b9050828103604084015261179a818e61164f565b90508b60608401528a60808401528960a08401528860c08401528760e084015286610100840152856101208401528415156101408401528281036101608401526117e4818561164f565b9f9e505050505050505050505050505050565b8082018082111561181657634e487b7160e01b5f52601160045260245ffd5b92915050565b5f8261183657634e487b7160e01b5f52601260045260245ffd5b500490565b634e487b7160e01b5f52603260045260245ffd5b600181811c9082168061186357607f821691505b60208210810361188157634e487b7160e01b5f52602260045260245ffd5b50919050565b601f821115610a0e57805f5260205f20601f840160051c810160208510156118ac5750805b601f840160051c820191505b818110156118cb575f81556001016118b8565b5050505050565b815167ffffffffffffffff8111156118ec576118ec611278565b611900816118fa845461184f565b84611887565b602080601f831160018114611933575f841561191c5750858301515b5f19600386901b1c1916600185901b17855561198a565b5f85815260208120601f198616915b8281101561196157888601518255948401946001909101908401611942565b508582101561197e57878501515f19600388901b60f8161c191681555b505060018460011b0185555b505050505050565b5f82516119a381846020870161162d565b9190910192915050565b604081525f6119bf604083018561164f565b82810360208401526119d1818561167a565b95945050505050565b6020808252601490820152731059d95b9d081b9bdd081c9959da5cdd195c995960621b604082015260600190565b606081525f611a1a606083018661167a565b6020830194909452506040015291905056fea2646970667358221220346e5aa9f9d994108480a73d3aa1276fc1400db043c2225d26e4428501d0c0d964736f6c63430008180033",
  "linkReferences": {},
  "deployedLinkReferences": {}
}