{
  "_format": "hh-sol-artifact-1",
  "contractName": "Reputation",
  "sourceName": "contracts/Reputation.sol",
  "abi": [
    {
      "inputs": [
        {
          "internalType": "address",
          "name": "_taskEscrow",
          "type": "address"
        },
        {
          "internalType": "address",
          "name": "_agentRegistry",
          "type": "address"
        }
      ],
      "stateMutability": "nonpayable",
      "type": "constructor"
    },
    {
      "inputs": [
        {
          "internalType": "address",
          "name": "owner",
          "type": "address"
        }
      ],
      "name": "OwnableInvalidOwner",
      "type": "error"
    },
    {
      "inputs": [
        {
          "internalType": "address",
          "name": "account",
          "type": "address"
        }
      ],
      "name": "OwnableUnauthorizedAccount",
      "type": "error"
    },
    {
      "anonymous": false,
      "inputs": [
        {
          "indexed": true,
          "internalType": "address",
          "name": "previousOwner",
          "type": "address"
        },
        {
          "indexed": true,
          "internalType": "address",
          "name": "newOwner",
          "type": "address"
        }
      ],
      "name": "OwnershipTransferred",
      "type": "event"
    },
    {
      "anonymous": false,
      "inputs": [
        {
          "indexed": true,
          "internalType": "uint256",
          "name": "reviewId",
          "type": "uint256"
        },
        {
          "indexed": true,
          "internalType": "address",
          "name": "reviewer",
          "type": "address"
        },
        {
          "indexed": false,
          "internalType": "address",
          "name": "reviewee",
          "type": "address"
        },
        {
          "indexed": false,
          "internalType": "uint256",
          "name": "taskId",
          "type": "uint256"
        },
        {
          "indexed": false,
          "internalType": "uint8",
          "name": "rating",
          "type": "uint8"
        }
      ],
      "name": "ReviewSubmitted",
      "type": "event"
    },
    {
      "inputs": [],
      "name": "agentRegistry",
      "outputs": [
        {
          "internalType": "contract IAgentRegistry",
          "name": "",
          "type": "address"
        }
      ],
      "stateMutability": "view",
      "type": "function"
    },
    {
      "inputs": [
        {
          "internalType": "address",
          "name": "",
          "type": "address"
        },
        {
          "internalType": "uint256",
          "name": "",
          "type": "uint256"
        }
      ],
      "name": "agentReviews",
      "outputs": [
        {
          "internalType": "uint256",
          "name": "",
          "type": "uint256"
        }
      ],
      "stateMutability": "view",
      "type": "function"
    },
    {
      "inputs": [
        {
          "internalType": "address",
          "name": "agent",
          "type": "address"
        }
      ],
      "name": "getReputation",
      "outputs": [
        {
          "internalType": "uint256",
          "name": "averageRating",
          "type": "uint256"
        },
        {
          "internalType": "uint256",
          "name": "totalReviews",
          "type": "uint256"
        },
        {
          "internalType": "uint256",
          "name": "completedTasks",
          "type": "uint256"
        },
        {
          "internalType": "uint256",
          "name": "disputedTasks",
          "type": "uint256"
        },
        {
          "internalType": "uint256",
          "name": "totalEarnings",
          "type": "uint256"
        },
        {
          "internalType": "uint256",
          "name": "avgResponseTime",
          "type": "uint256"
        },
        {
          "internalType": "uint256",
          "name": "completionRate",
          "type": "uint256"
        }
      ],
      "stateMutability": "view",
      "type": "function"
    },
    {
      "inputs": [
        {
          "internalType": "address",
          "name": "agent",
          "type": "address"
        }
      ],
      "name": "getReviewCount",
      "outputs": [
        {
          "internalType": "uint256",
          "name": "",
          "type": "uint256"
        }
      ],
      "stateMutability": "view",
      "type": "function"
    },
    {
      "inputs": [
        {
          "internalType": "address",
          "name": "agent",
          "type": "address"
        },
        {
          "internalType": "uint256",
          "name": "offset",
          "type": "uint256"
        },
        {
          "internalType": "uint256",
          "name": "limit",
          "type": "uint256"
        }
      ],
      "name": "getReviews",
      "outputs": [
        {
          "internalType": "uint256[]",
          "name": "reviewIds",
          "type": "uint256[]"
        },
        {
          "internalType": "address[]",
          "name": "reviewers",
          "type": "address[]"
        },
        {
          "internalType": "uint8[]",
          "name": "ratings",
          "type": "uint8[]"
        },
        {
          "internalType": "string[]",
          "name": "comments",
          "type": "string[]"
        },
        {
          "internalType": "uint256[]",
          "name": "taskIds",
          "type": "uint256[]"
        },
        {
          "internalType": "uint256[]",
          "name": "createdAts",
          "type": "uint256[]"
        }
      ],
      "stateMutability": "view",
      "type": "function"
    },
    {
      "inputs": [
        {
          "internalType": "address",
          "name": "agent",
          "type": "address"
        }
      ],
      "name": "getTrustScore",
      "outputs": [
        {
          "internalType": "uint256",
          "name": "",
          "type": "uint256"
        }
      ],
      "stateMutability": "view",
      "type": "function"
    },
    {
      "inputs": [
        {
          "internalType": "uint256",
          "name": "taskId",
          "type": "uint256"
        },
        {
          "internalType": "address",
          "name": "reviewer",
          "type": "address"
        }
      ],
      "name": "hasReviewForTask",
      "outputs": [
        {
          "internalType": "bool",
          "name": "",
          "type": "bool"
        }
      ],
      "stateMutability": "view",
      "type": "function"
    },
    {
      "inputs": [
        {
          "internalType": "uint256",
          "name": "",
          "type": "uint256"
        },
        {
          "internalType": "address",
          "name": "",
          "type": "address"
        }
      ],
      "name": "hasReviewed",
      "outputs": [
        {
          "internalType": "bool",
          "name": "",
          "type": "bool"
        }
      ],
      "stateMutability": "view",
      "type": "function"
    },
    {
      "inputs": [],
      "name": "nextReviewId",
      "outputs": [
        {
          "internalType": "uint256",
          "name": "",
          "type": "uint256"
        }
      ],
      "stateMutability": "view",
      "type": "function"
    },
    {
      "inputs": [],
      "name": "owner",
      "outputs": [
        {
          "internalType": "address",
          "name": "",
          "type": "address"
        }
      ],
      "stateMutability": "view",
      "type": "function"
    },
    {
      "inputs": [],
      "name": "renounceOwnership",
      "outputs": [],
      "stateMutability": "nonpayable",
      "type": "function"
    },
    {
      "inputs": [
        {
          "internalType": "address",
          "name": "",
          "type": "address"
        }
      ],
      "name": "reputation",
      "outputs": [
        {
          "internalType": "uint256",
          "name": "averageRating",
          "type": "uint256"
        },
        {
          "internalType": "uint256",
          "name": "totalReviews",
          "type": "uint256"
        },
        {
          "internalType": "uint256",
          "name": "completedTasks",
          "type": "uint256"
        },
        {
          "internalType": "uint256",
          "name": "disputedTasks",
          "type": "uint256"
        },
        {
          "internalType": "uint256",
          "name": "totalEarnings",
          "type": "uint256"
        },
        {
          "internalType": "uint256",
          "name": "avgResponseTime",
          "type": "uint256"
        },
        {
          "internalType": "uint256",
          "name": "completionRate",
          "type": "uint256"
        }
      ],
      "stateMutability": "view",
      "type": "function"
    },
    {
      "inputs": [
        {
          "internalType": "uint256",
          "name": "",
          "type": "uint256"
        }
      ],
      "name": "reviews",
      "outputs": [
        {
          "internalType": "uint256",
          "name": "id",
          "type": "uint256"
        },
        {
          "internalType": "address",
          "name": "reviewer",
          "type": "address"
        },
        {
          "internalType": "address",
          "name": "reviewee",
          "type": "address"
        },
        {
          "internalType": "uint256",
          "name": "taskId",
          "type": "uint256"
        },
        {
          "internalType": "uint8",
          "name": "rating",
          "type": "uint8"
        },
        {
          "internalType": "string",
          "name": "comment",
          "type": "string"
        },
        {
          "internalType": "uint256",
          "name": "createdAt",
          "type": "uint256"
        }
      ],
      "stateMutability": "view",
      "type": "function"
    },
    {
      "inputs": [
        {
          "internalType": "address",
          "name": "_agentRegistry",
          "type": "address"
        }
      ],
      "name": "setAgentRegistry",
      "outputs": [],
      "stateMutability": "nonpayable",
      "type": "function"
    },
    {
      "inputs": [
        {
          "internalType": "address",
          "name": "_taskEscrow",
          "type": "address"
        }
      ],
      "name": "setTaskEscrow",
      "outputs": [],
      "stateMutability": "nonpayable",
      "type": "function"
    },
    {
      "inputs": [
        {
          "internalType": "uint256",
          "name": "taskId",
          "type": "uint256"
        },
        {
          "internalType": "uint8",
          "name": "rating",
          "type": "uint8"
        },
        {
          "internalType": "string",
          "name": "comment",
          "type": "string"
        }
      ],
      "name": "submitReview",
      "outputs": [],
      "stateMutability": "nonpayable",
      "type": "function"
    },
    {
      "inputs": [],
      "name": "taskEscrow",
      "outputs": [
        {
          "internalType": "address",
          "name": "",
          "type": "address"
        }
      ],
      "stateMutability": "view",
      "type": "function"
    },
    {
      "inputs": [
        {
          "internalType": "address",
          "name": "newOwner",
          "type": "address"
        }
      ],
      "name": "transferOwnership",
      "outputs": [],
      "stateMutability": "nonpayable",
      "type": "function"
    },
    {
      "inputs": [
        {
          "internalType": "address",
          "name": "agent",
          "type": "address"
        },
        {
          "internalType": "uint256",
          "name": "completedTasks",
          "type": "uint256"
        },
        {
          "internalType": "uint256",
          "name": "disputedTasks",
          "type": "uint256"
        },
        {
          "internalType": "uint256",
          "name": "totalEarnings",
          "type": "uint256"
        },
        {
          "internalType": "uint256",
          "name": "avgResponseTime",
          "type": "uint256"
        },
        {
          "internalType": "uint256",
          "name": "completionRate",
          "type": "uint256"
        }
      ],
      "name": "updateStats",
      "outputs": [],
      "stateMutability": "nonpayable",
      "type": "function"
    }
  ],
  "bytecode": "0x6080604052600160035534801562000015575f80fd5b50604051620017bd380380620017bd833981016040819052620000389162000107565b33806200005e57604051631e4fbdf760e01b81525f600482015260240160405180910390fd5b62000069816200009c565b50600180546001600160a01b039384166001600160a01b031991821617909155600280549290931691161790556200013d565b5f80546001600160a01b038381166001600160a01b0319831681178455604051919092169283917f8be0079c531659141344cd1fd0a4f28419497f9722a3daafe3b4186f6b6457e09190a35050565b80516001600160a01b038116811462000102575f80fd5b919050565b5f806040838503121562000119575f80fd5b6200012483620000eb565b91506200013460208401620000eb565b90509250929050565b611672806200014b5f395ff3fe608060405234801561000f575f80fd5b506004361061011c575f3560e01c8063715018a6116100a95780639c89a0e21161006e5780639c89a0e214610290578063b9f7945114610318578063da87501314610362578063e83ddcea14610375578063f2fde38b1461039b575f80fd5b8063715018a61461022557806374a5b6931461022d5780637c7198cc146102405780638203bc881461026d5780638da5cb5b14610280575f80fd5b8063315e32a8116100ef578063315e32a81461018b578063396e77e7146101ae578063509209ba146101c55780635e09eea1146101ea5780636ec78fc6146101fd575f80fd5b80630d1cfcae1461012057806318040e781461015057806327c4ffe11461016557806328342ecf14610178575b5f80fd5b600254610133906001600160a01b031681565b6040516001600160a01b0390911681526020015b60405180910390f35b61016361015e366004610f17565b6103ae565b005b600154610133906001600160a01b031681565b610163610186366004610f5f565b6103ee565b61019e610199366004610f81565b610418565b6040519015158152602001610147565b6101b760035481565b604051908152602001610147565b6101d86101d3366004610faf565b610444565b604051610147969594939291906110f2565b6101b76101f8366004610f5f565b610812565b6101b761020b366004610f5f565b6001600160a01b03165f9081526006602052604090205490565b6101636108cf565b61016361023b36600461121c565b6108e2565b61019e61024e366004610f81565b600460209081525f928352604080842090915290825290205460ff1681565b6101b761027b3660046112b1565b610cb9565b5f546001600160a01b0316610133565b6102e361029e366004610f5f565b6001600160a01b03165f908152600760205260409020805460018201546002830154600384015460048501546005860154600690960154949693959294919390929190565b604080519788526020880196909652948601939093526060850191909152608084015260a083015260c082015260e001610147565b6102e3610326366004610f5f565b60076020525f90815260409020805460018201546002830154600384015460048501546005860154600690960154949593949293919290919087565b610163610370366004610f5f565b610ce4565b6103886103833660046112db565b610d0e565b60405161014797969594939291906112f2565b6101636103a9366004610f5f565b610de3565b6103b6610e20565b6001600160a01b039095165f908152600760205260409020600281019490945560038401929092556004830155600582015560060155565b6103f6610e20565b600280546001600160a01b0319166001600160a01b0392909216919091179055565b5f8281526004602090815260408083206001600160a01b038516845290915290205460ff165b92915050565b6001600160a01b0383165f9081526006602052604081206060918291829182918291829190610473898b61135b565b8254909150811115610483575080545b5f61048e8b8361136e565b90508067ffffffffffffffff8111156104a9576104a96111b0565b6040519080825280602002602001820160405280156104d2578160200160208202803683370190505b5098508067ffffffffffffffff8111156104ee576104ee6111b0565b604051908082528060200260200182016040528015610517578160200160208202803683370190505b5097508067ffffffffffffffff811115610533576105336111b0565b60405190808252806020026020018201604052801561055c578160200160208202803683370190505b5096508067ffffffffffffffff811115610578576105786111b0565b6040519080825280602002602001820160405280156105ab57816020015b60608152602001906001900390816105965790505b5095508067ffffffffffffffff8111156105c7576105c76111b0565b6040519080825280602002602001820160405280156105f0578160200160208202803683370190505b5094508067ffffffffffffffff81111561060c5761060c6111b0565b604051908082528060200260200182016040528015610635578160200160208202803683370190505b5093505f5b81811015610802575f8461064e838f61135b565b8154811061065e5761065e611381565b905f5260205f20015490505f60055f8381526020019081526020015f209050818c848151811061069057610690611381565b602090810291909101015260018101548b516001600160a01b03909116908c90859081106106c0576106c0611381565b6001600160a01b039092166020928302919091019091015260048101548a5160ff909116908b90859081106106f7576106f7611381565b602002602001019060ff16908160ff168152505080600501805461071a90611395565b80601f016020809104026020016040519081016040528092919081815260200182805461074690611395565b80156107915780601f1061076857610100808354040283529160200191610791565b820191905f5260205f20905b81548152906001019060200180831161077457829003601f168201915b50505050508984815181106107a8576107a8611381565b602002602001018190525080600301548884815181106107ca576107ca611381565b60200260200101818152505080600601548784815181106107ed576107ed611381565b6020908102919091010152505060010161063a565b5050505093975093979195509350565b6001600160a01b0381165f9081526007602052604081206001810154820361083c57505f92915050565b80545f906101f49061084f90603c6113cd565b61085991906113e4565b90505f6127108360060154601e61087091906113cd565b61087a91906113e4565b90505f60648460020154116108ab5760648460020154600a61089c91906113cd565b6108a691906113e4565b6108ae565b600a5b9050806108bb838561135b565b6108c5919061135b565b9695505050505050565b6108d7610e20565b6108e05f610e4c565b565b60018260ff16101580156108fa575060058260ff1611155b6109405760405162461bcd60e51b8152602060048201526012602482015271526174696e67206d75737420626520312d3560701b60448201526064015b60405180910390fd5b5f83815260046020908152604080832033845290915290205460ff161561099c5760405162461bcd60e51b815260206004820152601060248201526f105b1c9958591e481c995d9a595dd95960821b6044820152606401610937565b600154604051630eb2f3bf60e11b8152600481018590525f91829182916001600160a01b031690631d65e77e906024015f60405180830381865afa1580156109e6573d5f803e3d5ffd5b505050506040513d5f823e601f3d908101601f19168201604052610a0d919081019061145d565b5050505094505050925092508060ff16600514610a5c5760405162461bcd60e51b815260206004820152600d60248201526c15185cdac81b9bdd081c185a59609a1b6044820152606401610937565b336001600160a01b0384161480610a7b5750336001600160a01b038316145b610ab65760405162461bcd60e51b815260206004820152600c60248201526b139bdd081a5b9d9bdb1d995960a21b6044820152606401610937565b5f336001600160a01b03851614610acd5783610acf565b825b90506001600160a01b0381163303610b1e5760405162461bcd60e51b815260206004820152601260248201527143616e6e6f742073656c662d72657669657760701b6044820152606401610937565b5f8781526004602090815260408083203384529091528120805460ff19166001179055600380549082610b5083611518565b909155505f818152600560208190526040909120828155600181018054336001600160a01b0319918216179091556002820180549091166001600160a01b038716179055600381018b905560048101805460ff191660ff8c161790559192508101610bbb888261157c565b50426006808301919091556001600160a01b0384165f908152602091825260408120805460018101825590825291902001829055610bfc8360ff8a16610e9b565b600254604051634e63f9b160e01b81526001600160a01b03858116600483015260ff8b16602483015290911690634e63f9b1906044015f604051808303815f87803b158015610c49575f80fd5b505af1158015610c5b573d5f803e3d5ffd5b5050604080516001600160a01b0387168152602081018d905260ff8c168183015290513393508592507f53ebdee98743cc6259192725dfd8a86bb1cb758884089994611341c6fd2795749181900360600190a3505050505050505050565b6006602052815f5260405f208181548110610cd2575f80fd5b905f5260205f20015f91509150505481565b610cec610e20565b600180546001600160a01b0319166001600160a01b0392909216919091179055565b600560208190525f918252604090912080546001820154600283015460038401546004850154958501805494966001600160a01b03948516969390941694919360ff169291610d5c90611395565b80601f0160208091040260200160405190810160405280929190818152602001828054610d8890611395565b8015610dd35780601f10610daa57610100808354040283529160200191610dd3565b820191905f5260205f20905b815481529060010190602001808311610db657829003601f168201915b5050505050908060060154905087565b610deb610e20565b6001600160a01b038116610e1457604051631e4fbdf760e01b81525f6004820152602401610937565b610e1d81610e4c565b50565b5f546001600160a01b031633146108e05760405163118cdaa760e01b8152336004820152602401610937565b5f80546001600160a01b038381166001600160a01b0319831681178455604051919092169283917f8be0079c531659141344cd1fd0a4f28419497f9722a3daafe3b4186f6b6457e09190a35050565b6001600160a01b0382165f908152600760205260408120600181015481549192918491610ec7916113cd565b610ed1919061135b565b90506001826001015f828254610ee7919061135b565b90915550506001820154610efb90826113e4565b909155505050565b6001600160a01b0381168114610e1d575f80fd5b5f805f805f8060c08789031215610f2c575f80fd5b8635610f3781610f03565b9860208801359850604088013597606081013597506080810135965060a00135945092505050565b5f60208284031215610f6f575f80fd5b8135610f7a81610f03565b9392505050565b5f8060408385031215610f92575f80fd5b823591506020830135610fa481610f03565b809150509250929050565b5f805f60608486031215610fc1575f80fd5b8335610fcc81610f03565b95602085013595506040909401359392505050565b5f815180845260208085019450602084015f5b8381101561101057815187529582019590820190600101610ff4565b509495945050505050565b5f815180845260208085019450602084015f5b8381101561101057815160ff168752958201959082019060010161102e565b5f5b8381101561106757818101518382015260200161104f565b50505f910152565b5f815180845261108681602086016020860161104d565b601f01601f19169290920160200192915050565b5f8282518085526020808601955060208260051b840101602086015f5b848110156110e557601f198684030189526110d383835161106f565b988401989250908301906001016110b7565b5090979650505050505050565b60c081525f61110460c0830189610fe1565b8281036020848101919091528851808352898201928201905f5b818110156111435784516001600160a01b03168352938301939183019160010161111e565b50508481036040860152611157818a61101b565b92505050828103606084015261116d818761109a565b905082810360808401526111818186610fe1565b905082810360a08401526111958185610fe1565b9998505050505050505050565b60ff81168114610e1d575f80fd5b634e487b7160e01b5f52604160045260245ffd5b604051601f8201601f1916810167ffffffffffffffff811182821017156111ed576111ed6111b0565b604052919050565b5f67ffffffffffffffff82111561120e5761120e6111b0565b50601f01601f191660200190565b5f805f6060848603121561122e575f80fd5b833592506020840135611240816111a2565b9150604084013567ffffffffffffffff81111561125b575f80fd5b8401601f8101861361126b575f80fd5b803561127e611279826111f5565b6111c4565b818152876020838501011115611292575f80fd5b816020840160208301375f602083830101528093505050509250925092565b5f80604083850312156112c2575f80fd5b82356112cd81610f03565b946020939093013593505050565b5f602082840312156112eb575f80fd5b5035919050565b8781526001600160a01b038781166020830152861660408201526060810185905260ff8416608082015260e060a082018190525f906113339083018561106f565b90508260c083015298975050505050505050565b634e487b7160e01b5f52601160045260245ffd5b8082018082111561043e5761043e611347565b8181038181111561043e5761043e611347565b634e487b7160e01b5f52603260045260245ffd5b600181811c908216806113a957607f821691505b6020821081036113c757634e487b7160e01b5f52602260045260245ffd5b50919050565b808202811582820484141761043e5761043e611347565b5f826113fe57634e487b7160e01b5f52601260045260245ffd5b500490565b5f82601f830112611412575f80fd5b8151611420611279826111f5565b818152846020838601011115611434575f80fd5b61144582602083016020870161104d565b949350505050565b8051611458816111a2565b919050565b5f805f805f805f805f6101208a8c031215611476575f80fd5b895161148181610f03565b60208b015190995061149281610f03565b60408b015160608c0151919950975067ffffffffffffffff808211156114b6575f80fd5b6114c28d838e01611403565b97506114d060808d0161144d565b965060a08c0151955060c08c0151945060e08c015193506101008c01519150808211156114fb575f80fd5b506115088c828d01611403565b9150509295985092959850929598565b5f6001820161152957611529611347565b5060010190565b601f82111561157757805f5260205f20601f840160051c810160208510156115555750805b601f840160051c820191505b81811015611574575f8155600101611561565b50505b505050565b815167ffffffffffffffff811115611596576115966111b0565b6115aa816115a48454611395565b84611530565b602080601f8311600181146115dd575f84156115c65750858301515b5f19600386901b1c1916600185901b178555611634565b5f85815260208120601f198616915b8281101561160b578886015182559484019460019091019084016115ec565b508582101561162857878501515f19600388901b60f8161c191681555b505060018460011b0185555b50505050505056fea26469706673582212209c1251af8698a35a64f0475fda381895d80d8362c076cc9322a06c48166f5c8564736f6c63430008180033",
  "linkReferences": {},
  "deployedLinkReferences": {}
}