{
  "_format": "hh-sol-artifact-1",
  "contractName": "TaskEscrow",
  "sourceName": "contracts/TaskEscrow.sol",
  "abi": [
    {
      "inputs": [
        {
          "internalType": "address",
          "name": "_usdc",
          "type": "address"
        },
        {
          "internalType": "address",
          "name": "_agentRegistry",
          "type": "address"
        }
      ],
      "stateMutability": "nonpayable",
      "type": "constructor"
    },
    {
      "inputs": [
        {
          "internalType": "address",
          "name": "owner",
          "type": "address"
        }
      ],
      "name": "OwnableInvalidOwner",
      "type": "error"
    },
    {
      "inputs": [
        {
          "internalType": "address",
          "name": "account",
          "type": "address"
        }
      ],
      "name": "OwnableUnauthorizedAccount",
      "type": "error"
    },
    {
      "inputs": [],
      "name": "ReentrancyGuardReentrantCall",
      "type": "error"
    },
    {
      "inputs": [
        {
          "internalType": "address",
          "name": "token",
          "type": "address"
        }
      ],
      "name": "SafeERC20FailedOperation",
      "type": "error"
    },
    {
      "anonymous": false,
      "inputs": [
        {
          "indexed": true,
          "internalType": "address",
          "name": "previousOwner",
          "type": "address"
        },
        {
          "indexed": true,
          "internalType": "address",
          "name": "newOwner",
          "type": "address"
        }
      ],
      "name": "OwnershipTransferred",
      "type": "event"
    },
    {
      "anonymous": false,
      "inputs": [
        {
          "indexed": true,
          "internalType": "uint256",
          "name": "taskId",
          "type": "uint256"
        },
        {
          "indexed": true,
          "internalType": "address",
          "name": "provider",
          "type": "address"
        }
      ],
      "name": "TaskAccepted",
      "type": "event"
    },
    {
      "anonymous": false,
      "inputs": [
        {
          "indexed": true,
          "internalType": "uint256",
          "name": "taskId",
          "type": "uint256"
        },
        {
          "indexed": false,
          "internalType": "uint256",
          "name": "paymentAmount",
          "type": "uint256"
        }
      ],
      "name": "TaskApproved",
      "type": "event"
    },
    {
      "anonymous": false,
      "inputs": [
        {
          "indexed": true,
          "internalType": "uint256",
          "name": "taskId",
          "type": "uint256"
        }
      ],
      "name": "TaskCancelled",
      "type": "event"
    },
    {
      "anonymous": false,
      "inputs": [
        {
          "indexed": true,
          "internalType": "uint256",
          "name": "taskId",
          "type": "uint256"
        },
        {
          "indexed": true,
          "internalType": "address",
          "name": "requester",
          "type": "address"
        },
        {
          "indexed": false,
          "internalType": "uint256",
          "name": "budget",
          "type": "uint256"
        },
        {
          "indexed": false,
          "internalType": "string",
          "name": "description",
          "type": "string"
        }
      ],
      "name": "TaskCreated",
      "type": "event"
    },
    {
      "anonymous": false,
      "inputs": [
        {
          "indexed": true,
          "internalType": "uint256",
          "name": "taskId",
          "type": "uint256"
        },
        {
          "indexed": true,
          "internalType": "address",
          "name": "disputer",
          "type": "address"
        },
        {
          "indexed": false,
          "internalType": "string",
          "name": "reason",
          "type": "string"
        }
      ],
      "name": "TaskDisputed",
      "type": "event"
    },
    {
      "anonymous": false,
      "inputs": [
        {
          "indexed": true,
          "internalType": "uint256",
          "name": "taskId",
          "type": "uint256"
        }
      ],
      "name": "TaskExpired",
      "type": "event"
    },
    {
      "anonymous": false,
      "inputs": [
        {
          "indexed": true,
          "internalType": "uint256",
          "name": "taskId",
          "type": "uint256"
        },
        {
          "indexed": false,
          "internalType": "uint256",
          "name": "requesterShare",
          "type": "uint256"
        },
        {
          "indexed": false,
          "internalType": "uint256",
          "name": "providerShare",
          "type": "uint256"
        }
      ],
      "name": "TaskResolved",
      "type": "event"
    },
    {
      "anonymous": false,
      "inputs": [
        {
          "indexed": true,
          "internalType": "uint256",
          "name": "taskId",
          "type": "uint256"
        },
        {
          "indexed": false,
          "internalType": "bytes32",
          "name": "deliverableHash",
          "type": "bytes32"
        },
        {
          "indexed": false,
          "internalType": "string",
          "name": "deliverableURI",
          "type": "string"
        }
      ],
      "name": "TaskSubmitted",
      "type": "event"
    },
    {
      "inputs": [
        {
          "internalType": "uint256",
          "name": "taskId",
          "type": "uint256"
        }
      ],
      "name": "acceptTask",
      "outputs": [],
      "stateMutability": "nonpayable",
      "type": "function"
    },
    {
      "inputs": [],
      "name": "agentRegistry",
      "outputs": [
        {
          "internalType": "contract IAgentRegistry",
          "name": "",
          "type": "address"
        }
      ],
      "stateMutability": "view",
      "type": "function"
    },
    {
      "inputs": [
        {
          "internalType": "uint256",
          "name": "taskId",
          "type": "uint256"
        }
      ],
      "name": "approveTask",
      "outputs": [],
      "stateMutability": "nonpayable",
      "type": "function"
    },
    {
      "inputs": [
        {
          "internalType": "uint256",
          "name": "taskId",
          "type": "uint256"
        }
      ],
      "name": "cancelTask",
      "outputs": [],
      "stateMutability": "nonpayable",
      "type": "function"
    },
    {
      "inputs": [
        {
          "internalType": "address",
          "name": "provider",
          "type": "address"
        },
        {
          "internalType": "uint256",
          "name": "budget",
          "type": "uint256"
        },
        {
          "internalType": "string",
          "name": "description",
          "type": "string"
        },
        {
          "internalType": "string[]",
          "name": "requiredSkills",
          "type": "string[]"
        },
        {
          "internalType": "uint256",
          "name": "deadline",
          "type": "uint256"
        }
      ],
      "name": "createTask",
      "outputs": [
        {
          "internalType": "uint256",
          "name": "",
          "type": "uint256"
        }
      ],
      "stateMutability": "nonpayable",
      "type": "function"
    },
    {
      "inputs": [
        {
          "internalType": "uint256",
          "name": "taskId",
          "type": "uint256"
        },
        {
          "internalType": "string",
          "name": "reason",
          "type": "string"
        }
      ],
      "name": "disputeTask",
      "outputs": [],
      "stateMutability": "nonpayable",
      "type": "function"
    },
    {
      "inputs": [],
      "name": "disputeWindow",
      "outputs": [
        {
          "internalType": "uint256",
          "name": "",
          "type": "uint256"
        }
      ],
      "stateMutability": "view",
      "type": "function"
    },
    {
      "inputs": [
        {
          "internalType": "uint256",
          "name": "taskId",
          "type": "uint256"
        }
      ],
      "name": "expireTask",
      "outputs": [],
      "stateMutability": "nonpayable",
      "type": "function"
    },
    {
      "inputs": [
        {
          "internalType": "address",
          "name": "provider",
          "type": "address"
        }
      ],
      "name": "getProviderTasks",
      "outputs": [
        {
          "internalType": "uint256[]",
          "name": "",
          "type": "uint256[]"
        }
      ],
      "stateMutability": "view",
      "type": "function"
    },
    {
      "inputs": [
        {
          "internalType": "address",
          "name": "requester",
          "type": "address"
        }
      ],
      "name": "getRequesterTasks",
      "outputs": [
        {
          "internalType": "uint256[]",
          "name": "",
          "type": "uint256[]"
        }
      ],
      "stateMutability": "view",
      "type": "function"
    },
    {
      "inputs": [
        {
          "internalType": "uint256",
          "name": "taskId",
          "type": "uint256"
        }
      ],
      "name": "getTask",
      "outputs": [
        {
          "internalType": "address",
          "name": "requester",
          "type": "address"
        },
        {
          "internalType": "address",
          "name": "provider",
          "type": "address"
        },
        {
          "internalType": "uint256",
          "name": "budget",
          "type": "uint256"
        },
        {
          "internalType": "string",
          "name": "description",
          "type": "string"
        },
        {
          "internalType": "enum TaskEscrow.TaskStatus",
          "name": "status",
          "type": "uint8"
        },
        {
          "internalType": "uint256",
          "name": "createdAt",
          "type": "uint256"
        },
        {
          "internalType": "uint256",
          "name": "deadline",
          "type": "uint256"
        },
        {
          "internalType": "bytes32",
          "name": "deliverableHash",
          "type": "bytes32"
        },
        {
          "internalType": "string",
          "name": "deliverableURI",
          "type": "string"
        }
      ],
      "stateMutability": "view",
      "type": "function"
    },
    {
      "inputs": [],
      "name": "getTaskCount",
      "outputs": [
        {
          "internalType": "uint256",
          "name": "",
          "type": "uint256"
        }
      ],
      "stateMutability": "view",
      "type": "function"
    },
    {
      "inputs": [],
      "name": "nextTaskId",
      "outputs": [
        {
          "internalType": "uint256",
          "name": "",
          "type": "uint256"
        }
      ],
      "stateMutability": "view",
      "type": "function"
    },
    {
      "inputs": [],
      "name": "owner",
      "outputs": [
        {
          "internalType": "address",
          "name": "",
          "type": "address"
        }
      ],
      "stateMutability": "view",
      "type": "function"
    },
    {
      "inputs": [],
      "name": "platformFeePercent",
      "outputs": [
        {
          "internalType": "uint256",
          "name": "",
          "type": "uint256"
        }
      ],
      "stateMutability": "view",
      "type": "function"
    },
    {
      "inputs": [
        {
          "internalType": "address",
          "name": "",
          "type": "address"
        },
        {
          "internalType": "uint256",
          "name": "",
          "type": "uint256"
        }
      ],
      "name": "providerTasks",
      "outputs": [
        {
          "internalType": "uint256",
          "name": "",
          "type": "uint256"
        }
      ],
      "stateMutability": "view",
      "type": "function"
    },
    {
      "inputs": [],
      "name": "renounceOwnership",
      "outputs": [],
      "stateMutability": "nonpayable",
      "type": "function"
    },
    {
      "inputs": [
        {
          "internalType": "address",
          "name": "",
          "type": "address"
        },
        {
          "internalType": "uint256",
          "name": "",
          "type": "uint256"
        }
      ],
      "name": "requesterTasks",
      "outputs": [
        {
          "internalType": "uint256",
          "name": "",
          "type": "uint256"
        }
      ],
      "stateMutability": "view",
      "type": "function"
    },
    {
      "inputs": [
        {
          "internalType": "uint256",
          "name": "taskId",
          "type": "uint256"
        },
        {
          "internalType": "uint256",
          "name": "requesterPercent",
          "type": "uint256"
        }
      ],
      "name": "resolveDispute",
      "outputs": [],
      "stateMutability": "nonpayable",
      "type": "function"
    },
    {
      "inputs": [
        {
          "internalType": "uint256",
          "name": "_window",
          "type": "uint256"
        }
      ],
      "name": "setDisputeWindow",
      "outputs": [],
      "stateMutability": "nonpayable",
      "type": "function"
    },
    {
      "inputs": [
        {
          "internalType": "uint256",
          "name": "_feePercent",
          "type": "uint256"
        }
      ],
      "name": "setPlatformFee",
      "outputs": [],
      "stateMutability": "nonpayable",
      "type": "function"
    },
    {
      "inputs": [
        {
          "internalType": "uint256",
          "name": "taskId",
          "type": "uint256"
        }
      ],
      "name": "startTask",
      "outputs": [],
      "stateMutability": "nonpayable",
      "type": "function"
    },
    {
      "inputs": [
        {
          "internalType": "uint256",
          "name": "taskId",
          "type": "uint256"
        },
        {
          "internalType": "bytes32",
          "name": "deliverableHash",
          "type": "bytes32"
        },
        {
          "internalType": "string",
          "name": "deliverableURI",
          "type": "string"
        }
      ],
      "name": "submitDeliverable",
      "outputs": [],
      "stateMutability": "nonpayable",
      "type": "function"
    },
    {
      "inputs": [
        {
          "internalType": "uint256",
          "name": "",
          "type": "uint256"
        }
      ],
      "name": "tasks",
      "outputs": [
        {
          "internalType": "uint256",
          "name": "id",
          "type": "uint256"
        },
        {
          "internalType": "address",
          "name": "requester",
          "type": "address"
        },
        {
          "internalType": "address",
          "name": "provider",
          "type": "address"
        },
        {
          "internalType": "uint256",
          "name": "budget",
          "type": "uint256"
        },
        {
          "internalType": "string",
          "name": "description",
          "type": "string"
        },
        {
          "internalType": "enum TaskEscrow.TaskStatus",
          "name": "status",
          "type": "uint8"
        },
        {
          "internalType": "uint256",
          "name": "createdAt",
          "type": "uint256"
        },
        {
          "internalType": "uint256",
          "name": "deadline",
          "type": "uint256"
        },
        {
          "internalType": "uint256",
          "name": "submittedAt",
          "type": "uint256"
        },
        {
          "internalType": "bytes32",
          "name": "deliverableHash",
          "type": "bytes32"
        },
        {
          "internalType": "string",
          "name": "deliverableURI",
          "type": "string"
        },
        {
          "internalType": "uint256",
          "name": "disputeDeadline",
          "type": "uint256"
        }
      ],
      "stateMutability": "view",
      "type": "function"
    },
    {
      "inputs": [
        {
          "internalType": "address",
          "name": "newOwner",
          "type": "address"
        }
      ],
      "name": "transferOwnership",
      "outputs": [],
      "stateMutability": "nonpayable",
      "type": "function"
    },
    {
      "inputs": [],
      "name": "usdc",
      "outputs": [
        {
          "internalType": "contract IERC20",
          "name": "",
          "type": "address"
        }
      ],
      "stateMutability": "view",
      "type": "function"
    }
  ],
  "bytecode": "0x608060405260fa6003556203f480600455600160055534801562000021575f80fd5b506040516200245d3803806200245d833981016040819052620000449162000137565b33806200006a57604051631e4fbdf760e01b81525f600482015260240160405180910390fd5b6200007581620000cc565b5060017f9b779b17422d0df92223018b32b4d1fa46e071723d6817e2486d003becc55f0055600180546001600160a01b039384166001600160a01b031991821617909155600280549290931691161790556200016d565b5f80546001600160a01b038381166001600160a01b0319831681178455604051919092169283917f8be0079c531659141344cd1fd0a4f28419497f9722a3daafe3b4186f6b6457e09190a35050565b80516001600160a01b038116811462000132575f80fd5b919050565b5f806040838503121562000149575f80fd5b62000154836200011b565b915062000164602084016200011b565b90509250929050565b6122e2806200017b5f395ff3fe608060405234801561000f575f80fd5b5060043610610187575f3560e01c80635f944326116100d95780638da5cb5b11610093578063c17a340e1161006e578063c17a340e14610372578063e846c4ff1461037a578063f2fde38b1461038d578063fdc3d8d7146103a0575f80fd5b80638da5cb5b1461033c578063a0974a0a1461034c578063bdc84ac31461035f575f80fd5b80635f944326146102c757806362ecc47a146102da578063715018a6146102ed5780637eec20a8146102f55780638c639a85146103085780638d97767214610311575f80fd5b80631d65e77e1161014457806346ffbd651161011f57806346ffbd651461027b57806349e6a6191461028e5780634bddd209146102a15780635a1a236d146102b4575f80fd5b80631d65e77e1461022d578063332226d0146102555780633e413bee14610268575f80fd5b80630a07fae61461018b5780630d1cfcae146101a0578063117f5f92146101d057806312e8e2c3146101e757806313d9a2cd146101fa5780631bf6912d1461021a575b5f80fd5b61019e610199366004611bce565b6103a9565b005b6002546101b3906001600160a01b031681565b6040516001600160a01b0390911681526020015b60405180910390f35b6101d960045481565b6040519081526020016101c7565b61019e6101f5366004611bce565b6105c4565b61020d610208366004611c00565b61060d565b6040516101c79190611c20565b61019e610228366004611bce565b610676565b61024061023b366004611bce565b6108f9565b6040516101c799989796959493929190611cda565b61019e610263366004611bce565b610a97565b6001546101b3906001600160a01b031681565b61019e610289366004611e02565b610aa4565b6101d961029c366004611e4e565b610c3a565b61019e6102af366004611f4e565b61107a565b61020d6102c2366004611c00565b6111db565b61019e6102d5366004611bce565b611242565b61019e6102e8366004611bce565b611302565b61019e611449565b61019e610303366004611bce565b61145c565b6101d960035481565b61032461031f366004611bce565b61157e565b6040516101c79c9b9a99989796959493929190611f92565b5f546001600160a01b03166101b3565b6101d961035a366004612022565b6116fd565b61019e61036d36600461204a565b611728565b6101d96118a6565b6101d9610388366004612022565b6118bb565b61019e61039b366004611c00565b6118d4565b6101d960055481565b6103b161190e565b5f81815260066020526040902060018101546001600160a01b0316331461040f5760405162461bcd60e51b815260206004820152600d60248201526c2737ba103932b8bab2b9ba32b960991b60448201526064015b60405180910390fd5b6003600682015460ff16600981111561042a5761042a611ca6565b146104675760405162461bcd60e51b815260206004820152600d60248201526c139bdd081cdd589b5a5d1d1959609a1b6044820152606401610406565b60068101805460ff1916600417905560038054908201545f916127109161048e919061207e565b610498919061209b565b90505f8183600301546104ab91906120ba565b60068401805460ff1916600517905560028401546001549192506104dc916001600160a01b03908116911683611929565b8115610509576105096104f65f546001600160a01b031690565b6001546001600160a01b03169084611929565b600280549084015460405163f98c828f60e01b81526001600160a01b0391821660048201526024810184905291169063f98c828f906044015f604051808303815f87803b158015610558575f80fd5b505af115801561056a573d5f803e3d5ffd5b50505050837fed13e150246f477d9d887acb1eb497d96cc0f125b91d306e7814b2bb05af735b826040516105a091815260200190565b60405180910390a25050506105c160015f8051602061228d83398151915255565b50565b6105cc611963565b6103e88111156106085760405162461bcd60e51b81526020600482015260076024820152664d61782031302560c81b6044820152606401610406565b600355565b6001600160a01b0381165f9081526007602090815260409182902080548351818402810184019094528084526060939283018282801561066a57602002820191905f5260205f20905b815481526020019060010190808311610656575b50505050509050919050565b61067e61190e565b5f81815260066020526040812090600682015460ff1660098111156106a5576106a5611ca6565b146106e25760405162461bcd60e51b815260206004820152600d60248201526c2a30b9b5903737ba1037b832b760991b6044820152606401610406565b60025460405163c3c5a54760e01b81523360048201526001600160a01b039091169063c3c5a54790602401602060405180830381865afa158015610728573d5f803e3d5ffd5b505050506040513d601f19601f8201168201806040525081019061074c91906120cd565b6107895760405162461bcd60e51b815260206004820152600e60248201526d139bdd081c9959da5cdd195c995960921b6044820152606401610406565b600254604051639f8a13d760e01b81523360048201526001600160a01b0390911690639f8a13d790602401602060405180830381865afa1580156107cf573d5f803e3d5ffd5b505050506040513d601f19601f820116820180604052508101906107f391906120cd565b61082c5760405162461bcd60e51b815260206004820152600a6024820152694e6f742061637469766560b01b6044820152606401610406565b4281600801541161086e5760405162461bcd60e51b815260206004820152600c60248201526b15185cdac8195e1c1a5c995960a21b6044820152606401610406565b6002810180546001600160a01b031916331790556006810180546001919060ff191682800217905550335f81815260086020908152604080832080546001810182559084529183209091018590555184917fc8717b61398fb9d7cacf49fe1e296b2f10e9711226b532842b6ffd642cb6a2c691a3506105c160015f8051602061228d83398151915255565b5f81815260066020819052604082206001810154600282015460038301549383015460078401546008850154600a8601546004870180548a998a996060998b998a998a998a998e9995986001600160a01b039586169894909516969560ff9093169391929091600b8a0190869061096f906120ec565b80601f016020809104026020016040519081016040528092919081815260200182805461099b906120ec565b80156109e65780601f106109bd576101008083540402835291602001916109e6565b820191905f5260205f20905b8154815290600101906020018083116109c957829003601f168201915b505050505095508080546109f9906120ec565b80601f0160208091040260200160405190810160405280929190818152602001828054610a25906120ec565b8015610a705780601f10610a4757610100808354040283529160200191610a70565b820191905f5260205f20905b815481529060010190602001808311610a5357829003601f168201915b50505050509050995099509950995099509950995099509950509193959799909294969850565b610a9f611963565b600455565b5f83815260066020526040902060028101546001600160a01b03163314610afc5760405162461bcd60e51b815260206004820152600c60248201526b2737ba10383937bb34b232b960a11b6044820152606401610406565b6001600682015460ff166009811115610b1757610b17611ca6565b1480610b3b57506002600682015460ff166009811115610b3957610b39611ca6565b145b610b785760405162461bcd60e51b815260206004820152600e60248201526d496e76616c69642073746174757360901b6044820152606401610406565b42816008015411610bba5760405162461bcd60e51b815260206004820152600c60248201526b15185cdac8195e1c1a5c995960a21b6044820152606401610406565b600a8101839055600b8101610bcf838261216f565b50426009820181905560068201805460ff19166003179055600454610bf39161222f565b600c82015560405184907f4959532fdc397fc46302b73dac03f3c04a3a153337f3985c062d9a53dbca955e90610c2c9086908690612242565b60405180910390a250505050565b5f610c4361190e565b5f8511610c875760405162461bcd60e51b81526020600482015260126024820152710427564676574206d757374206265203e20360741b6044820152606401610406565b428211610cd65760405162461bcd60e51b815260206004820152601a60248201527f446561646c696e65206d75737420626520696e206675747572650000000000006044820152606401610406565b5f845111610d1d5760405162461bcd60e51b815260206004820152601460248201527311195cd8dc9a5c1d1a5bdb881c995c5d5a5c995960621b6044820152606401610406565b6001600160a01b03861615610e925760025460405163c3c5a54760e01b81526001600160a01b0388811660048301529091169063c3c5a54790602401602060405180830381865afa158015610d74573d5f803e3d5ffd5b505050506040513d601f19601f82011682018060405250810190610d9891906120cd565b610de45760405162461bcd60e51b815260206004820152601760248201527f50726f7669646572206e6f7420726567697374657265640000000000000000006044820152606401610406565b600254604051639f8a13d760e01b81526001600160a01b03888116600483015290911690639f8a13d790602401602060405180830381865afa158015610e2c573d5f803e3d5ffd5b505050506040513d601f19601f82011682018060405250810190610e5091906120cd565b610e925760405162461bcd60e51b815260206004820152601360248201527250726f7669646572206e6f742061637469766560681b6044820152606401610406565b600580545f9182610ea283612262565b90915550600154909150610ec1906001600160a01b031633308961198f565b5f818152600660205260409020818155600181018054336001600160a01b0319918216179091556002820180549091166001600160a01b038a161790556003810187905560048101610f13878261216f565b508451610f299060058301906020880190611b18565b506001600160a01b038816610f3e575f610f41565b60015b60068201805460ff19166001836009811115610f5f57610f5f611ca6565b02179055504260078083019190915560088201859055335f9081526020918252604081208054600181018255908252919020018290556001600160a01b03881615610fcf576001600160a01b0388165f908152600860209081526040822080546001810182559083529120018290555b336001600160a01b0316827fedce45cc3fc2bea98c94b72104f4a750dcc91bd183a01870ed4f93a365eba5b9898960405161100b929190612242565b60405180910390a36001600160a01b03881615611058576040516001600160a01b0389169083907fc8717b61398fb9d7cacf49fe1e296b2f10e9711226b532842b6ffd642cb6a2c6905f90a35b50905061107160015f8051602061228d83398151915255565b95945050505050565b5f82815260066020526040902060018101546001600160a01b03163314806110ae575060028101546001600160a01b031633145b6110e65760405162461bcd60e51b81526020600482015260096024820152684e6f7420706172747960b81b6044820152606401610406565b6003600682015460ff16600981111561110157611101611ca6565b1461113e5760405162461bcd60e51b815260206004820152600d60248201526c139bdd081cdd589b5a5d1d1959609a1b6044820152606401610406565b80600c015442111561118a5760405162461bcd60e51b8152602060048201526015602482015274111a5cdc1d5d19481dda5b991bddc818db1bdcd959605a1b6044820152606401610406565b6006818101805460ff19169091179055604051339084907f2214f6a8b429291289d3afcdfccc59167b10f1d8ad1529e3959f9cd19f19af5f906111ce90869061227a565b60405180910390a3505050565b6001600160a01b0381165f9081526008602090815260409182902080548351818402810184019094528084526060939283018282801561066a57602002820191905f5260205f20908154815260200190600101908083116106565750505050509050919050565b5f81815260066020526040902060028101546001600160a01b0316331461129a5760405162461bcd60e51b815260206004820152600c60248201526b2737ba10383937bb34b232b960a11b6044820152606401610406565b6001600682015460ff1660098111156112b5576112b5611ca6565b146112f15760405162461bcd60e51b815260206004820152600c60248201526b139bdd081858d8d95c1d195960a21b6044820152606401610406565b600601805460ff1916600217905550565b61130a61190e565b5f81815260066020526040812090600682015460ff16600981111561133157611331611ca6565b148061135557506001600682015460ff16600981111561135357611353611ca6565b145b6113915760405162461bcd60e51b815260206004820152600d60248201526c43616e6e6f742065787069726560981b6044820152606401610406565b806008015442116113d25760405162461bcd60e51b815260206004820152600b60248201526a139bdd08195e1c1a5c995960aa1b6044820152606401610406565b60068101805460ff1916600917905560018082015460038301549154611408926001600160a01b03918216929190911690611929565b60405182907f7c2ecd5e2b7188ac57f3a370681639cb447c9cbfbbbace0c070adea6c73eaa54905f90a2506105c160015f8051602061228d83398151915255565b611451611963565b61145a5f6119cb565b565b61146461190e565b5f81815260066020526040902060018101546001600160a01b031633146114bd5760405162461bcd60e51b815260206004820152600d60248201526c2737ba103932b8bab2b9ba32b960991b6044820152606401610406565b5f600682015460ff1660098111156114d7576114d7611ca6565b1461150f5760405162461bcd60e51b81526020600482015260086024820152672737ba1037b832b760c11b6044820152606401610406565b60068101805460ff19166008179055600381015460015461153d916001600160a01b03909116903390611929565b60405182907fc6eacc3aa5b2aa77b5a826b832a804ca0b71830ec74f9aa57a15edd978c31ed6905f90a2506105c160015f8051602061228d83398151915255565b60066020525f90815260409020805460018201546002830154600384015460048501805494956001600160a01b0394851695939094169391926115c0906120ec565b80601f01602080910402602001604051908101604052809291908181526020018280546115ec906120ec565b80156116375780601f1061160e57610100808354040283529160200191611637565b820191905f5260205f20905b81548152906001019060200180831161161a57829003601f168201915b505050505090806006015f9054906101000a900460ff169080600701549080600801549080600901549080600a01549080600b018054611676906120ec565b80601f01602080910402602001604051908101604052809291908181526020018280546116a2906120ec565b80156116ed5780601f106116c4576101008083540402835291602001916116ed565b820191905f5260205f20905b8154815290600101906020018083116116d057829003601f168201915b50505050509080600c015490508c565b6007602052815f5260405f208181548110611716575f80fd5b905f5260205f20015f91509150505481565b611730611963565b5f82815260066020819052604090912090600682015460ff16600981111561175a5761175a611ca6565b146117965760405162461bcd60e51b815260206004820152600c60248201526b139bdd08191a5cdc1d5d195960a21b6044820152606401610406565b60648211156117d95760405162461bcd60e51b815260206004820152600f60248201526e125b9d985b1a59081c195c98d95b9d608a1b6044820152606401610406565b5f60648383600301546117ec919061207e565b6117f6919061209b565b90505f81836003015461180991906120ba565b90508115611830576001808401549054611830916001600160a01b03918216911684611929565b8015611855576002830154600154611855916001600160a01b03918216911683611929565b60068301805460ff19166007179055604080518381526020810183905286917fc414eff4159bd36f3a88fecd8432df6263b12b23231c76bad6f1704523f5038f910160405180910390a25050505050565b5f60016005546118b691906120ba565b905090565b6008602052815f5260405f208181548110611716575f80fd5b6118dc611963565b6001600160a01b03811661190557604051631e4fbdf760e01b81525f6004820152602401610406565b6105c1816119cb565b611916611a1a565b60025f8051602061228d83398151915255565b6119368383836001611a49565b61195e57604051635274afe760e01b81526001600160a01b0384166004820152602401610406565b505050565b5f546001600160a01b0316331461145a5760405163118cdaa760e01b8152336004820152602401610406565b61199d848484846001611aab565b6119c557604051635274afe760e01b81526001600160a01b0385166004820152602401610406565b50505050565b5f80546001600160a01b038381166001600160a01b0319831681178455604051919092169283917f8be0079c531659141344cd1fd0a4f28419497f9722a3daafe3b4186f6b6457e09190a35050565b5f8051602061228d8339815191525460020361145a57604051633ee5aeb560e01b815260040160405180910390fd5b60405163a9059cbb60e01b5f8181526001600160a01b038616600452602485905291602083604481808b5af1925060015f51148316611a9f578383151615611a93573d5f823e3d81fd5b5f873b113d1516831692505b60405250949350505050565b6040516323b872dd60e01b5f8181526001600160a01b038781166004528616602452604485905291602083606481808c5af1925060015f51148316611b07578383151615611afb573d5f823e3d81fd5b5f883b113d1516831692505b604052505f60605295945050505050565b828054828255905f5260205f20908101928215611b5c579160200282015b82811115611b5c5782518290611b4c908261216f565b5091602001919060010190611b36565b50611b68929150611b6c565b5090565b80821115611b68575f611b7f8282611b88565b50600101611b6c565b508054611b94906120ec565b5f825580601f10611ba3575050565b601f0160209004905f5260205f20908101906105c191905b80821115611b68575f8155600101611bbb565b5f60208284031215611bde575f80fd5b5035919050565b80356001600160a01b0381168114611bfb575f80fd5b919050565b5f60208284031215611c10575f80fd5b611c1982611be5565b9392505050565b602080825282518282018190525f9190848201906040850190845b81811015611c5757835183529284019291840191600101611c3b565b50909695505050505050565b5f81518084525f5b81811015611c8757602081850181015186830182015201611c6b565b505f602082860101526020601f19601f83011685010191505092915050565b634e487b7160e01b5f52602160045260245ffd5b600a8110611cd657634e487b7160e01b5f52602160045260245ffd5b9052565b6001600160a01b038a811682528916602082015260408101889052610120606082018190525f90611d0d8382018a611c63565b9050611d1c6080840189611cba565b8660a08401528560c08401528460e0840152828103610100840152611d418185611c63565b9c9b505050505050505050505050565b634e487b7160e01b5f52604160045260245ffd5b604051601f8201601f1916810167ffffffffffffffff81118282101715611d8e57611d8e611d51565b604052919050565b5f82601f830112611da5575f80fd5b813567ffffffffffffffff811115611dbf57611dbf611d51565b611dd2601f8201601f1916602001611d65565b818152846020838601011115611de6575f80fd5b816020850160208301375f918101602001919091529392505050565b5f805f60608486031215611e14575f80fd5b8335925060208401359150604084013567ffffffffffffffff811115611e38575f80fd5b611e4486828701611d96565b9150509250925092565b5f805f805f60a08688031215611e62575f80fd5b611e6b86611be5565b94506020808701359450604087013567ffffffffffffffff80821115611e8f575f80fd5b611e9b8a838b01611d96565b95506060890135915080821115611eb0575f80fd5b818901915089601f830112611ec3575f80fd5b813581811115611ed557611ed5611d51565b8060051b611ee4858201611d65565b918252838101850191858101908d841115611efd575f80fd5b86860192505b83831015611f3757823585811115611f19575f80fd5b611f278f89838a0101611d96565b8352509186019190860190611f03565b9a9d999c50979a6080013598975050505050505050565b5f8060408385031215611f5f575f80fd5b82359150602083013567ffffffffffffffff811115611f7c575f80fd5b611f8885828601611d96565b9150509250929050565b8c81526001600160a01b038c811660208301528b166040820152606081018a9052610180608082018190525f90611fcb8382018c611c63565b9050611fda60a084018b611cba565b8860c08401528760e084015286610100840152856101208401528281036101408401526120078186611c63565b915050826101608301529d9c50505050505050505050505050565b5f8060408385031215612033575f80fd5b61203c83611be5565b946020939093013593505050565b5f806040838503121561205b575f80fd5b50508035926020909101359150565b634e487b7160e01b5f52601160045260245ffd5b80820281158282048414176120955761209561206a565b92915050565b5f826120b557634e487b7160e01b5f52601260045260245ffd5b500490565b818103818111156120955761209561206a565b5f602082840312156120dd575f80fd5b81518015158114611c19575f80fd5b600181811c9082168061210057607f821691505b60208210810361211e57634e487b7160e01b5f52602260045260245ffd5b50919050565b601f82111561195e57805f5260205f20601f840160051c810160208510156121495750805b601f840160051c820191505b81811015612168575f8155600101612155565b5050505050565b815167ffffffffffffffff81111561218957612189611d51565b61219d8161219784546120ec565b84612124565b602080601f8311600181146121d0575f84156121b95750858301515b5f19600386901b1c1916600185901b178555612227565b5f85815260208120601f198616915b828110156121fe578886015182559484019460019091019084016121df565b508582101561221b57878501515f19600388901b60f8161c191681555b505060018460011b0185555b505050505050565b808201808211156120955761209561206a565b828152604060208201525f61225a6040830184611c63565b949350505050565b5f600182016122735761227361206a565b5060010190565b602081525f611c196020830184611c6356fe9b779b17422d0df92223018b32b4d1fa46e071723d6817e2486d003becc55f00a2646970667358221220a33d1f714705027871b58536af94c657574c3646a63b93d31a9813dd85fa85d464736f6c63430008180033",
  "linkReferences": {},
  "deployedLinkReferences": {}
}